:100000000C9451000C9479000C9479000C947900B4
:100010000C9479000C9479000C9466080C94790087
:100020000C9479000C9479000C9479000C9479006C
:100030000C9479000C9479000C94FA080C94AB0998
:100040000C9479000C9479000C9479000C9479004C
:100050000C94F7070C9479000C9479000C947900B7
:100060000C941C080C9479000C9479000C94790081
:100070000C9479000C94AD070C9479000C947900E1
:100080000C9479000C9479000C9441080C94D207DC
:100090000C9449070C94B1080C948B080C947900CB
:1000A0006B0A11241FBECFEFCDBFDFE3DEBF18E226
:1000B000A0E0B8E2EEEDF8E102C005900D92A430A8
:1000C000B107D9F72AE2A4E0B8E201C01D92A23C30
:1000D000B207E1F710E0C1E5D0E004C02197FE01CE
:1000E0000E94F80BC035D107C9F70E949E0A0C94F4
:1000F0000D0C0C94000090E0FC01E858F74AE081F8
:10010000EF3F49F1825A974ADC012C91822F880FE8
:10011000880F880F8E0F8033F0F490E0880F991FBE
:10012000DC01A554B64D4FE856E04D935C93855ADB
:10013000964DDC011D921C92B0E22B9FC001112450
:100140009C5F4096E80FF92FF11D8081887F8083A6
:100150008081816080830895FC0154894589252F21
:1001600030E0842F90E0821B930B541710F0CF9651
:10017000089501970895FC0192898389981761F089
:10018000A389AE0FBF2FB11D59968C9193899F5FA4
:100190009F73938B90E008958FEF9FEF0895FC017C
:1001A00092898389981731F08389E80FF11D818D39
:1001B00090E008958FEF9FEF0895FC0192892389C5
:1001C000892F90E0805C9F4F821B91098F73992744
:1001D0000895CF93DF93EC01E881F9810680F781E0
:1001E000E02D0995EC85FD8586818F738683EC85EE
:1001F000FD8585818F7585838B898A8B198ADF912F
:10020000CF910895CF93DF93FC0194898589C485AC
:10021000D585981306C08D818F7D8D83DF91CF9119
:100220000895A589AE0FBF2FB11DA75ABF4F2C91BE
:10023000858990E001968F739927858B80E48C8364
:10024000A485B58512962C93948985899813E6CF59
:10025000A485B58515968C9115978F7D15968C93F1
:1002600087898823D9F2808D80931301178AD6CF8E
:10027000DC011C96ED91FC910FB607FE03C02581B1
:1002800025FD04C0248125FD0C9402010895EF9200
:10029000FF920F931F93CF93DF93EC0181E0898B43
:1002A0009C898D8998131CC0AC85BD8514968C9152
:1002B000149785FF15C012966C93AC85BD8580E4BC
:1002C00014968C93EC85FD8585818F7D858381E0F7
:1002D00090E0DF91CF911F910F91FF90EF900895E3
:1002E0008091110180FF08C080911301888F8E8951
:1002F0008093130181E08F8BF62E0C8910E00F5F45
:100300001F4F0F731127E02E8D898E1104C0CE016F
:100310000E943801F9CFEC89EC0FFD2FF11DE75A4F
:10032000FF4FF0820C8BEC85FD8585818062CECFFE
:10033000CF93DF93FC0121892223C9F0EC01809146
:10034000110180FF08C080911301808F86898093FE
:10035000130181E0878BEC85FD85858185FD03C0D8
:10036000848186FD04C0CE010E943801F4CFDF9164
:10037000CF910895CF93DF9390E0FC01EC5BF74AB7
:1003800020812F3F71F0FC01E25AF74AA08130E250
:10039000A39FD0011124BC5F6130710529F411962F
:1003A0002C93DF91CF9108958858974AEC01E8810A
:1003B000EF3F89F0CD014096E80FF92FF11D9FB76F
:1003C000F89412962C9380816230710539F488601C
:1003D00080839FBFE6CFF0E0E0E0F1CF877FF8CFEA
:1003E000282F30E0F901E65DF74AE081EE2309F1BC
:1003F000E13021F0F0F0E63098F008954091010AE4
:100400002858374AF90120812C5F81E090E001C033
:10041000880F2A95EAF7809584238093010A08952E
:1004200080E1E89FF0011124E05AF54F81818F7E31
:1004300081830895FF920F931F93CF93DF93082F2B
:1004400010E0F801EC5BF74AF0809FEFF916A1F09D
:10045000EB018B3210F40E94F001F801E25AF74AE6
:10046000E08180E2E89FF0011124FC5F80818F2110
:1004700059F0CD2B39F4F682DF91CF911F910F9176
:10048000FF900895F582F8CFD801A858B74A8C910B
:10049000309771F08F3F61F07096E80FF11D9FB7B4
:1004A000F8948081CD2B39F4877F80839FBFE4CF80
:1004B000F0E0E0E0F4CF8860F8CFCF92DF92EF92E7
:1004C000FF920F931F93CF93DF93EC016A017B019F
:1004D000022F8989882339F0E881F9810288F3891C
:1004E000E02DCE01099598898091E205892B8093B2
:1004F000E2051FB7F89460E070E281EA97E0A70197
:1005000096010E94A40B69017A018FEFC81AD80ADC
:10051000E80AF80AF694E794D794C794EC85FD8529
:1005200086818D7F8683EC85FD8586818683198A09
:10053000A09123110A2E000CBB0BA70196010E946B
:10054000F00B20E034E040E050E00E94C60BEC8568
:10055000FD85C20ED31EE41EF51EC086D186EC8535
:10056000FD850783EC85FD858681806C8683EC851F
:10057000FD858581806885838E858B3220F462E0DD
:1005800070E00E94BA018F858B3220F461E070E048
:100590000E941A028F858B3220F461E070E00E9485
:1005A000BA011FBFDF91CF911F910F91FF90EF9084
:1005B000DF90CF9008950F931F93CF93082F10E0F3
:1005C000F801EC5BF74AC081CF3FB9F08B3210F4F1
:1005D0000E94F001F801E25AF74AE08180E2E89FC8
:1005E000F0011124FC5F8085C82381E090E009F4CC
:1005F00080E0CF911F910F91089580E090E0F9CFB6
:10060000089560934B2970934C290895609349296C
:1006100070934A290895AF92BF92CF92DF92EF92E2
:10062000FF920F931F93CF93DF936C017B018B019C
:10063000040F151FEB015E01AE18BF08C017D107EC
:1006400059F06991D601ED91FC910190F081E02D76
:10065000C6010995892B79F7C501DF91CF911F91CB
:100660000F91FF90EF90DF90CF90BF90AF900895E3
:10067000EF92FF920F931F93CF93DF93C82FD0E099
:10068000A09695E0CC0FDD1F9A95E1F7E984F82E4E
:10069000FF0CFF0CFF0C01E010E08E2D8023A9F071
:1006A0002F2D210F30E0220F331FF901E554F64DB5
:1006B00080819181892B49F00190F081E02D255AAC
:1006C000364DD9018D919C9109951F5F000F18300F
:1006D00021F7E986DF91CF911F910F91FF90EF9065
:1006E000089581E008950F9391E09093442910922A
:1006F00043296093412970934229409340292093D4
:100700003F2910923E2910923D2900933C29880FE1
:1007100080933B2923E030E044E050E08091402981
:10072000882341F02093392930933A2980913B293D
:100730008E7F0BC080913F29882351F04093392947
:1007400050933A2980913B2981608093A70808C083
:1007500080914029811104C080913F29882311F3A1
:10076000809143298823E1F3809143298330B1F2BA
:1007700080913F29882321F080913D290F91089590
:1007800080914329823031F0853031F0813031F46D
:1007900080E0F4CF81E0F2CF83E0F0CF84E0EECFD1
:1007A000E0EAF8E091859066918722E030E02093BE
:1007B000392930933A2980932B2910922A290895B8
:1007C00081E080932A2910922B2993E09093AA0824
:1007D0009091AB0891FF10C010923729E091282921
:1007E000F091292909958093362985E090E080933E
:1007F000392990933A290895109238298093352900
:1008000086E090E0F4CF8F929F92AF92BF92CF920A
:10081000DF92EF92FF92CF93DF9360342DE0720767
:1008200023E08207910508F454C0611525E372079F
:100830002CE08207910508F445C060387F4482416E
:10084000910508F046C0C8E7D0E020E432E44FE06C
:1008500050E08090002890900128A0900228B0904D
:100860000328C501B4010E94A40B69017A018AE042
:10087000C81AD108E108F108C501B40120E432E446
:100880004FE050E00E94A40BDE010E94E50B28EE31
:1008900033E040E050E00E94A40BC21AD30AE40AFD
:1008A000F50AF694E794D794C794C092A608DF910E
:1008B000CF91FF90EF90DF90CF90BF90AF909F903F
:1008C0008F900895CCE2D1E020E83AE146E050E094
:1008D000C0CFC8EED3E020EA36E841E050E0B9CF1F
:1008E000E0914B29F0914C29309741F01092272943
:1008F00010922629099580912629089580E008956F
:10090000E0914929F0914A29309759F030912529F1
:1009100020912429321728F0109225298093242928
:10092000099408950895E091252980912429E817D4
:1009300030F4F0E0EC55F74D808190E008958FEFB2
:100940009FEF089590912529809124292FEF3FEF63
:10095000981748F4E92FF0E0EC55F74D208130E08E
:100960009F5F90932529C901089580912429909132
:100970002529891B990B0895CF92DF92EF92FF9260
:100980000F931F93CF93DF937C018A01EB016B01DF
:10099000C40ED51ECC15DD0551F06991D701ED913E
:1009A000FC910190F081E02DC7010995F3CFC801BA
:1009B000DF91CF911F910F91FF90EF90DF90CF903B
:1009C00008952091262927FF08C021E030E0FC018E
:1009D0002283338390E080E0089580912729E82FD7
:1009E000F0E0EC5DF74D60838F5F80932729809363
:1009F000262981E090E00895DC01ED91FC91008CC6
:100A0000F18DE02D61E009940F9380913929909147
:100A10003A290197A1F480914429811112C0062F2F
:100A200020E04091262964E278E2809123280E9408
:100A3000730310922729109226290F91089580E0C0
:100A4000F8CF81E0F6CF60932328109227291092E7
:100A500026290895DC01ED91FC91048CF58DE02DA3
:100A600021E009940F9384EA98E280932C299093D3
:100A70002D298091392990913A290197C9F48091C3
:100A80004429811117C0FA014138510510F0E0E8FE
:100A9000F0E0022F862F2E2F40E070E060E00E94F1
:100AA0007303109225298093242990E00F910895D3
:100AB00080E0F7CF81E0F5CFCB01BA010C940304BD
:100AC000E0EAF8E01382168281E0858314861186BD
:100AD0001092392910923A290895109225291092DE
:100AE0002429109227291092262980913929909142
:100AF0003A29892BD9F482E090E0809339299093A8
:100B00003A29109238291092372910922A291092E6
:100B10002B291092222810923529660F6093AC0879
:100B200081EE8093A90881E08093A30880E794E098
:100B3000809328299093292984E298E280932E2992
:100B400090932F2980E894E080933329909334295F
:100B500084EA98E2809330299093312980E8809349
:100B600032290895109225291092242910922729BC
:100B7000109226298091392990913A29892B41F5A3
:100B800062E070E086E10E94BA0162E070E087E115
:100B90000E94BA018091E3058093E30581E090E033
:100BA0008093392990933A2910923D2910923E2939
:100BB000109244291092432981EC8093A30860EAA3
:100BC00076E881E090E00E94030481E08093A5082C
:100BD000089590E080E00895CF93DF93CDB7DEB71E
:100BE0002697CDBFDEBF61E070E08DE00E941A0263
:100BF000ECE1F8E28081918199838A8382819381FB
:100C00009B838C83848195819D838E8346E050E015
:100C1000BE016F5F7F4F86EB9AE20E94BC0470E0DA
:100C200060E08DE00E941A022696CDBFDEBFDF9104
:100C3000CF910895DC01ED91FC910088F189E02DC0
:100C400023E030E00994FC0101900020E9F731979E
:100C5000AF01481B590BBC018BE19AE20C940B03CA
:100C60008F929F92AF92BF920F931F93CF93DF9378
:100C7000CDB7DEB7A197CDBFDEBF19A2423008F4D1
:100C80004AE08E010F5D1F4F842E912CB12CA12CB8
:100C9000A50194010E94A40BE62FB901CA01EA3014
:100CA000DCF4E05DD801EE938D01232B242B252B62
:100CB00079F790E080E0109719F0CD010E942306AB
:100CC000A196CDBFDEBFDF91CF911F910F91BF9055
:100CD000AF909F908F900895E95CE4CFCF92DF9220
:100CE000EF92FF92CF93DF936B017C016DE28BE17A
:100CF0009AE20E944701EC0166277727CB016C1925
:100D00007D098E099F094AE00E9430068C0F9D1FC5
:100D1000DF91CF91FF90EF90DF90CF9008958F9269
:100D20009F92AF92BF92CF92DF92EF92FF920F937A
:100D30001F93CF93DF9334E2E32E38E5F32E0CE1DB
:100D400018E24EE1C42E48E5D42E812C912C54019A
:100D5000E401D7018C91B2E0EB0EF11C8B3208F06C
:100D600081C00E94DB02CC0FDD1FFE01EA5EF74D61
:100D700080839183F6018081F2E0CF0ED11C8B320B
:100D800008F073C00E94DB02FE01E05FF74D808334
:100D90009183AE014A5E574DDA012D913C91CE010F
:100DA000865F974DDC018D919C912817390791F052
:100DB000DA012D913C91D8018D919C911197232BB3
:100DC00009F45BC020813181232B09F451C00197C4
:100DD0008D939C93FE01E05FF74D80819181FE0130
:100DE000EC5FF74D80839183FE01EA5EF74D8081D1
:100DF0009181C65FD74D888399834AE0C501B401CC
:100E00000E94300684ED98E50E942306D8016D917A
:100E10007D918D01072E000C880B990B97FF35C033
:100E20000E946E0688ED98E50E942306BFEF8B1A9C
:100E30009B0AAB0ABB0AE3E08E169104A104B1043D
:100E400009F086CF8BED98E5DF91CF911F910F913F
:100E5000FF90EF90DF90CF90BF90AF909F908F90DA
:100E60000C94230690E080E07ECF90E080E08CCF71
:100E70000196F80180839183ADCF20813181232BAE
:100E800011F00196A5CF0197F4CF4AE00E943006F9
:100E9000C9CF1F920F920FB60F9211242F933F9339
:100EA0004F935F936F937F938F939F93AF93BF9372
:100EB00040915729509158296091592970915A2988
:100EC0008091552990915629209153293091542988
:100ED000420F531F611D711D2091512930915229DC
:100EE000820F931F883E23E0920730F0885E934084
:100EF0004F5F5F4F6F4F7F4F8093552990935629D7
:100F000040935729509358296093592970935A292F
:100F100080914D2990914E29A0914F29B09150294F
:100F20000196A11DB11D80934D2990934E29A09348
:100F30004F29B093502981E08093B60ABF91AF91B9
:100F40009F918F917F916F915F914F913F912F91E1
:100F50000F900FBE0F901F9018951F920F920FB613
:100F60000F9211242F933F934F935F936F937F932F
:100F70008F939F93AF93BF93EF93FF9385E00E946E
:100F80003803FF91EF91BF91AF919F918F917F9126
:100F90006F915F914F913F912F910F900FBE0F90E6
:100FA0001F9018951F920F920FB60F9211242F9336
:100FB0003F934F935F936F937F938F939F93AF93E1
:100FC000BF93EF93FF9384E00E943803FF91EF916A
:100FD000BF91AF919F918F917F916F915F914F9151
:100FE0003F912F910F900FBE0F901F9018951F9259
:100FF0000F920FB60F9211242F933F934F935F934D
:101000006F937F938F939F93AF93BF93EF93FF93D0
:1010100083E00E943803FF91EF91BF91AF919F91C0
:101020008F917F916F915F914F913F912F910F9091
:101030000FBE0F901F9018951F920F920FB60F9230
:1010400011242F933F934F935F936F937F938F93CD
:101050009F93AF93BF93EF93FF9382E00E94380377
:10106000FF91EF91BF91AF919F918F917F916F9180
:101070005F914F913F912F910F900FBE0F901F9056
:1010800018951F920F920FB60F9211242F933F9332
:101090004F935F936F937F938F939F93AF93BF9380
:1010A000EF93FF9381E00E943803FF91EF91BF918E
:1010B000AF919F918F917F916F915F914F913F91F0
:1010C0002F910F900FBE0F901F9018951F920F92A7
:1010D0000FB60F9211242F933F934F935F936F930B
:1010E0007F938F939F93AF93BF93EF93FF9380E092
:1010F0000E943803FF91EF91BF91AF919F918F9123
:101100007F916F915F914F913F912F910F900FBE03
:101110000F901F9018951F920F920FB60F921124E7
:101120002F933F934F935F936F937F938F939F93EF
:10113000AF93BF93EF93FF938BE19AE20E9402017A
:10114000FF91EF91BF91AF919F918F917F916F919F
:101150005F914F913F912F910F900FBE0F901F9075
:1011600018951F920F920FB60F9211242F933F9351
:101170004F935F936F937F938F939F93AF93BF939F
:10118000EF93FF93E091272AF091282A818181FD36
:101190002FC0608180912D2A8F5F8F7390912E2AAE
:1011A000891741F0E0912D2AF0E0E55EF54D618F61
:1011B00080932D2A8091B42A9091B52A009739F016
:1011C000DC01ED91FC910190F081E02D0995FF91FA
:1011D000EF91BF91AF919F918F917F916F915F91AF
:1011E0004F913F912F910F900FBE0F901F90189528
:1011F0008081EDCF1F920F920FB60F9211242F9383
:101200003F934F935F936F937F938F939F93AF938E
:10121000BF93CF93EF93FF93C091AB08C2FF0AC077
:1012200010923829109237291092362984E00E94B2
:10123000D00314C0C6FF2FC080913529813051F4EE
:1012400080913829E0913329F091342990E0099573
:1012500010923529C0FF14C00E94E003FF91EF9166
:10126000CF91BF91AF919F918F917F916F915F913E
:101270004F913F912F910F900FBE0F901F90189597
:1012800080E48093AB0881E00E94D0038091AB089A
:1012900085FFE4CFE1CFC7FF5CC0C3FF08C0109259
:1012A0003829109237291092362983E0C0CF8091D7
:1012B000A90880668093A9088091AB0881FF2CC0A3
:1012C00080913729882349F08091AB0884FF05C0BD
:1012D00082E08093AA0881E0AACF9091372980917B
:1012E00036299817A8F4E091372980912E299091FA
:1012F0002F29E80FF92FF11D80818093AD0880918F
:1013000037298F5F8093372983E08093AA08A6CF7F
:1013100082E08093AA088BCF90913829809132295E
:10132000981790F48091AD08E091382920913029E8
:1013300030913129E20FF32FF11D808380913829FC
:101340008F5F80933829E0CF86E08093AA0882E0FF
:101350006ECF85E06CCF1F920F920FB60F921124C3
:101360002F933F938F939F93EF93FF938091A508C3
:10137000982F9C70E1F08091A50894E082FF93E0A3
:10138000909343298093A50881E090E080933929C8
:1013900090933A2910924429FF91EF919F918F9158
:1013A0003F912F910F900FBE0F901F90189586FFC1
:1013B0004EC02091402990913F298091A50884FF3B
:1013C00015C080913C29882379F083E08093A4089C
:1013D00085E0809343291092442981E090E0809336
:1013E000392990933A29D8CF81E0F0CF80913E29D6
:1013F000821790F4E0913E298091412990914229F1
:10140000E80FF92FF11D80818093A80880913E2973
:101410008F5F80933E29C0CF80913D29891760F46A
:1014200084E090E08093392990933A2980913B2978
:1014300081608093A708B0CF80913C29882329F050
:1014400083E08093A40881E0C4CF81E0FACF87FFD6
:1014500040C090913D2980913F299817D8F4809100
:10146000A808E0913D2920912C2930912D29E20FE7
:10147000F32FF11D808380913D298F5F80933D295B
:1014800090913F2980913D298917D8F482E080937B
:10149000A40882CF80913C29882389F087E080933B
:1014A000A40882E0809343291092442981E090E0CF
:1014B0008093392990933A2910923F296DCF85E086
:1014C000EECF80913C29882311F087E0BACF85E0E8
:1014D000B8CF86E07ECFEBE1FAE21282138288EE8B
:1014E00093E0A0E0B0E084839583A683B78326E9E8
:1014F00038E52083318320E638E02487358728E1EA
:10150000268729E1278720E4208B128A138A148AF0
:10151000158A26E2268B178A108E1092B42A109212
:10152000B52AE6EBFAE21282138284839583A683BE
:10153000B78380EB98E580839183089588ED90E0F0
:1015400084BF9093610080E094E2A4EFB0E08093C8
:10155000002890930128A0930228B093032880913B
:101560000206866080930206809100068160809367
:101570000006809102068F7C809302068091A00075
:101580008F788093A000809102068061809302068C
:101590001092E20581E08093E40583E08093010AE4
:1015A0008FEF90E08093260A9093270A80E890E0DE
:1015B0008093380A9093390A80933A0A90933B0AB1
:1015C00080933C0A90933D0A8BE08093000A8091BF
:1015D000E50581608093E5058091E5058260809353
:1015E000E505E0E8FAE037E02FEF90E885E03183A9
:1015F0002487958780837096E03C4AE0F407B9F72A
:1016000080E094E08093472990934829809147296E
:10161000909148292FEF30E0B9010E94900B609320
:101620004529709346298091472990914829E8EEF1
:10163000F3E0BF010E94900B6093532970935429EB
:101640008091472990914829BF010E94900B809377
:101650005129909352292093BC0A3093BD0A80915E
:10166000B50A81608093B50A84E08093B00A8091C6
:10167000B00A81608093B00A789461E086EB9AE2C8
:101680000E946D0580E093E08093492990934A2958
:101690008CEE95E080934B2990934C2940E052ECDE
:1016A00061E070E08BE19AE20E941A0670E060E06F
:1016B0008DE00E94BA0104E218E58EE1E82E88E58B
:1016C000F82EF801C0810E5F1F4FCB3228F470E076
:1016D00060E08C2F0E94BA01F701D081F2E0EF0E9A
:1016E000F11CDB32A8F470E060E08D2F0E94BA019B
:1016F000CB3280F08D2F0E947B0048E50A32140720
:1017000001F7C0E0D0E02097F1F30E940000FBCF8A
:10171000CB3298F78C2F0E947B00DB3258F3EDCF51
:10172000AA1BBB1B51E107C0AA1FBB1FA617B70707
:1017300010F0A61BB70B881F991F5A95A9F7809523
:101740009095BC01CD010895A1E21A2EAA1BBB1BE6
:10175000FD010DC0AA1FBB1FEE1FFF1FA217B3077D
:10176000E407F50720F0A21BB30BE40BF50B661F93
:10177000771F881F991F1A9469F760957095809557
:1017800090959B01AC01BD01CF010895052E97FBFB
:101790001EF400940E94DD0B57FD07D00E94A40B9D
:1017A00007FC03D04EF40C94DD0B5095409530951A
:1017B00021953F4F4F4F5F4F0895909580957095BD
:1017C00061957F4F8F4F9F4F08950E94FE0BA59FFD
:1017D000900DB49F900DA49F800D911D112408952C
:1017E000B7FF0C94E50B0E94E50B821B930B089549
:1017F000EE0FFF1F0590F491E02D0994A29FB00118
:10180000B39FC001A39F700D811D1124911DB29F34
:0E181000700D811D1124911D0895F894FFCFD5
:10181E0005000A000C00040009000B000000000384
:10182E0000010200000101000000000000000000A5
:10183E0000000000000020100120400410020801EA
:10184E0002010204080402010408102004082010FA
:10185E000202000502010500040101040404030351
:10186E00030305050303000001010504000506023C
:10187E00040103000100010203020100020304053A
:10188E00020305040000000047010B03AC009801A1
:10189E00DD00BB00CF001A065D02E90071030000F7
:1018AE000000E104BC04E9059204B504A20493040B
:1018BE00B2056D0560055C0523050405FC043205C3
:1018CE002A0506030103203D20002C20000D0A00EE
:0418DE000024F400EE
:00000001FF
