:100000000C944C010C947D010C947D010C947D01A9
:100010000C947D010C947D010C947D010C947D0168
:100020000C947D010C947D010C947D010C947D0158
:100030000C947D010C947D010C947D010C947D0148
:100040000C947D010C947D010C947D010C947D0138
:100050000C947D010C947D010C947D010C947A0626
:100060000C947D010C94EE060C94C4060C947D0156
:100070000C947D010C947D010C947D010C947D0108
:100080000C947D010C947D010C947D010C947D01F8
:100090000C947D010C947D010C947D010C9424073B
:1000A0000C947D010C947D010C947D010C947D01D8
:1000B0000C947D010C947D010C947D010C947D01C8
:1000C0000C947D010C947D010C947D010C947D01B8
:1000D0000C947D010C947D010C947D010C947D01A8
:1000E0000C947D01AE01B101A001A401A801E801B9
:1000F000B501B901BF01C301C701CD01D101D501CE
:10010000E801DB01DF01E3010C94D5010C94B5019A
:100110000C94B1010C94DF010C949D040C944404E4
:100120000C94E4020C9456080C94A4010C94AE01B7
:100130000C9497020C9408060C9496020C94A80157
:100140000C94B9010C94E3010C94C1020C94320399
:100150000C94E8010C94DB010C94D0020C94540430
:100160000C94C7010C94C3010C9468040C94950280
:100170000C9470040C94BF010C94B7030C94D1013F
:100180000C946A030C9445040C94A0010C94CD01CA
:1001900000002100240027002A002D003000330039
:1001A00001010000040107010A01000022002500EE
:1001B00028002B002E003100340002010000050150
:1001C00008010B01050505050705080808080202D6
:1001D00002020A0A080804040404010101010101E1
:1001E00001010303030303030303040707070C0CC4
:1001F0000C0C0C0C0C0C020202020606060606068B
:1002000006060B0B0B0B0B0B0B0B0102102020082F
:100210000810204010204080020102010804020161
:1002200001020408102040808040201008040201D0
:100230008004020180402010080402010804020129
:1002400001020408102040800102040810204080B0
:1002500000000A0B02090C0D0E0807030401000040
:10026000000000000000000000000000000000008E
:10027000000000000000000000000000121110004B
:10028000000000000000000000000000000000006E
:10029000000000000000560811241FBECFEFD1E27D
:1002A000DEBFCDBF00E00CBF24E0A0E7B2E001C09C
:1002B0001D92A435B207E1F712E0A0E0B2E0E0EB56
:1002C000FCE100E00BBF02C007900D92A037B10720
:1002D000D9F711E0CCE4D1E000E006C02197010994
:1002E000802FFE010E942F0DCB34D10780E008073C
:1002F000A9F70E948F080C94560E0C940000362F1C
:1003000090E0FC01E05BFD4F4491FC01E65FFD4F96
:100310002491FC01EC53FE4F9491992309F46CC095
:10032000442309F455C050E0FA013197E231F10558
:1003300008F04EC08827EE58FF4F8F4F0C942F0DBA
:10034000809180008F7707C0809180008F7D03C0EF
:1003500080918000877F809380003AC084B58F773A
:1003600002C084B58F7D84BD33C08091B0008F778B
:1003700003C08091B0008F7D8093B00029C0809130
:1003800090008F7707C0809190008F7D03C080918F
:100390009000877F809390001BC08091A0008F7792
:1003A00007C08091A0008F7D03C08091A000877F4F
:1003B0008093A0000DC0809120018F7707C08091AD
:1003C00020018F7D03C080912001877F80932001D1
:1003D000E92FF0E0EE0FFF1FE655FE4FA591B49117
:1003E0009FB7F894311104C08C912095282302C046
:1003F000EC912E2B2C939FBF0895CF93DF9390E029
:10040000FC01E65FFD4F2491FC01EC53FE4F84910B
:10041000882361F190E0880F991FFC01E057FE4F9F
:10042000C591D491FC01E655FE4FA591B49161119F
:1004300009C09FB7F8948881209582238883EC9126
:100440002E230BC0623061F49FB7F8948881322F5D
:10045000309583238883EC912E2B2C939FBF06C06D
:100460008FB7F894E8812E2B28838FBFDF91CF912F
:1004700008953FB7F8948091310390913203A09191
:100480003303B091340326B5A89B05C02F3F19F064
:100490000196A11DB11D3FBFBA2FA92F982F882704
:1004A000820F911DA11DB11DBC01CD0142E0660F5F
:1004B000771F881F991F4A95D1F708958F929F92B1
:1004C000AF92BF92CF92DF92EF92FF920E943902D9
:1004D0004B015C0184E6C82ED12CE12CF12C0E944A
:1004E0003902DC01CB0188199909AA09BB09883EA8
:1004F0009340A105B10598F321E0C21AD108E108A3
:10050000F10888EE880E83E0981EA11CB11CC1146E
:10051000D104E104F10419F7FF90EF90DF90CF9040
:10052000BF90AF909F908F90089508950895CF92B7
:10053000DF92EF92FF920F931F93CF93DF936C01A3
:100540007A018B01C0E0D0E0CE15DF0581F0D80143
:100550006D918D01D601ED91FC910190F081E02D1E
:10056000C6011995892B11F02196EECF7E01C701A6
:10057000DF91CF911F910F91FF90EF90DF90CF907F
:100580000895FC01538D448D252F30E0842F90E099
:10059000821B930B541710F0CF960895019708957E
:1005A000FC01918D828D981761F0828DDF01A80F7B
:1005B000B11D5D968C91928D9F5F9F73928F90E09D
:1005C00008958FEF9FEF0895FC01918D828D98170C
:1005D00031F0828DE80FF11D858D90E008958FEF49
:1005E0009FEF08952FB7F8948091350390913603CB
:1005F000A0913703B09138032FBF8093B30390933A
:10060000B403A093B503B093B6038BEA93E00E94C2
:10061000E40297FF26C02FB7F8948091350390919C
:100620003603A0913703B09138032FBF4091B30335
:100630005091B4036091B5037091B603841B950B80
:10064000A60BB70B4091AF035091B0036091B1037B
:100650007091B20384179507A607B707B0F28FEF22
:100660009FEF0895FC01918D228D892F90E0805C91
:100670009F4F821B91098F73992708958BEA93E00E
:100680000E94320321E0892B09F420E0822F089593
:10069000FC01848DDF01A80FB11DA35ABF4F2C911F
:1006A000848D90E001968F739927848FA689B789EE
:1006B0002C93A089B1898C91837080648C93938DE5
:1006C000848D981306C00288F389E02D80818F7D88
:1006D00080830895EF92FF920F931F93CF93DF9340
:1006E000EC0181E0888F9B8D8C8D981305C0E88983
:1006F000F989808185FD26C0F62E0B8D10E00F5FF5
:100700001F4F0F731127E02E8C8DE8120CC00FB60F
:1007100007FCFACFE889F989808185FFF5CFCE0102
:100720000E944803F1CF8B8DFE01E80FF11DE35AC3
:10073000FF4FF0829FB7F8940B8FEA89FB89808185
:1007400080620AC09FB7F894EE89FF896083E889C8
:10075000F98980818370806480839FBF81E090E00D
:10076000DF91CF911F910F91FF90EF900895CF935C
:10077000DF93EC01888D8823C9F0EA89FB898081A9
:1007800085FD05C0A889B9898C9186FD0FC00FB67B
:1007900007FCF5CF808185FFF2CFA889B9898C91BC
:1007A00085FFEDCFCE010E944803E7CFDF91CF91C7
:1007B000089580E090E0892B21F00E943E03811192
:1007C00025C080E090E0892B41F080E090E0892B0B
:1007D00021F00E94000081111CC080E090E0892B74
:1007E00041F080E090E0892B21F00E94000081110F
:1007F00013C080E090E0892BA1F080E090E0892B8D
:1008000081F00E94000081110AC008950E9400003A
:10081000D8CF0E940000E1CF0E940000EACF0C94E4
:100820000000089585ED8093BC008091BC0084FD9C
:10083000FCCF10921F0308954091B002262F30E0A4
:10084000240F311D21323105DCF420911F032430A7
:10085000C9F4FC0180E090E0861758F43091B002B2
:100860002191DC01A057BD4FA30FB11D2C93019620
:10087000F3CF8091B002680F6093B00280E00895DA
:1008800081E0089582E008950895E0912303809126
:100890002203E81730F4F0E0E059FD4F808190E04A
:1008A00008958FEF9FEF0895909123038091220385
:1008B000981750F4E92FF0E0E059FD4F208130E027
:1008C0009F5F9093230302C02FEF3FEFC90108956C
:1008D0008091220390E020912303821B91090895C7
:1008E000CF92DF92EF92FF920F931F93CF93DF93FC
:1008F0007C01CB018A012091F702222389F0EB01D0
:100900006B01C40ED51ECC15DD0569F06991D701C8
:10091000ED91FC910190F081E02DC7011995F3CF85
:10092000642F0E941C04C801DF91CF911F910F9189
:10093000FF90EF90DF90CF900895CF93DF931F92B9
:10094000CDB7DEB769832091F7022223D1F0209141
:100950002003203240F021E030E0FC013383228389
:1009600080E090E015C080912103E82FF0E0E8508E
:10097000FD4F998190838F5F8093210380932003A3
:1009800005C061E0CE0101960E941C0481E090E068
:100990000F90DF91CF9108958F929F92AF92BF9267
:1009A000CF92DF92EF92FF920F931F93CF93DF933B
:1009B0008C014A015B0120E030E040E752E4C501D0
:1009C000B4010E94350C6B017C01F80160817181DA
:1009D000828193819B01AC010E94380D9B01AC0187
:1009E000C701B6010E94A40DF8012481358146811A
:1009F00057810E94A40D20E030E040E855E40E94B9
:100A0000350C6B017C0120E030E0A9010E944C0E06
:100A100018161CF4C701B60103C0C701B6019058EF
:100A20000E94160EEB016F3F7F4014F0CFEFDFE026
:100A3000FF24F39420E030E0A901C501B4010E9435
:100A40004C0E18160CF0F12C6F2DF80186850E94C3
:100A50007F01F801128981E08093F7021093180357
:100A600010922103109220036C2F88E494E00E94DE
:100A70009D046D2F88E494E00E949D0490912003D2
:100A8000913208F045C080911F038111FCCF82E0B4
:100A900080931F0381E080931E038FEF8093F60203
:100AA0001092F5029093F402A8EFB2E0E4EDF2E0C8
:100AB00080E0981721F02D9121938F5FFACF10924B
:100AC000D3028091D302110F182B1093D30280917F
:100AD0001D03813061F410921D038091D302809335
:100AE000BB008091BC0083FDF8CF85EC01C085EE92
:100AF0008093BC0080911F038230E1F38091F60265
:100B00008F3F31F08091F602803211F08091F60231
:100B100010922103109220031092F702DF91CF91DF
:100B20001F910F91FF90EF90DF90CF90BF90AF900B
:100B30009F908F900895CF92DF92EF92FF92CF9384
:100B4000DF936B017C01C9E3D3E0B701A601CE01BD
:100B50000E94CC04639683E0CB3AD807B1F7DF91CB
:100B6000CF91FF90EF90DF90CF9008958F929F925A
:100B7000AF92BF92EF920F931F93CF93DF93EC014D
:100B8000862F9BED892E9FE0992E99E4A92E90E463
:100B9000B92E88829982AA82BB82812C60E4962E2B
:100BA00062E1A62E65E4B62E8C829D82AE82BF8263
:100BB0008C877D875F874E87398B288B1B870A87B9
:100BC000EA8A61E00E94FD0161E08E850E94FD01DC
:100BD00061E088890E94FD0160E088850E94FD0136
:100BE00060E08A850E94FD0140E050E0BA01CE013C
:100BF0000E94CC0461E08C85DF91CF911F910F9111
:100C0000EF90BF90AF909F908F900C947F010895CC
:100C100080E090E00895009769F0FC0101900020C9
:100C2000E9F73197AF01481B590BBC018BEA93E000
:100C30000C94970280E090E00895CF93DF930E9498
:100C40000B06EC0189E292E00E940B068C0F9D1FBF
:100C5000DF91CF9108958CE292E00E941D0660E042
:100C600070E0CB010C949B05CF92DF92EF92FF9244
:100C70000F931F93CF93DF93CDB7DEB7A1970FB636
:100C8000F894DEBF0FBECDBF9C0140E050E019A23A
:100C90008E010F5D1F4F8AE0C82ED12CE12CF12C64
:100CA000CA01B901A70196010E940D0D605DF8010E
:100CB00062938F01211531054105510589F7CF0157
:100CC0000E940B068C0189E292E00E940B06800FC5
:100CD000911FA1960FB6F894DEBF0FBECDBFDF9176
:100CE000CF911F910F91FF90EF90DF90CF900895DB
:100CF0000E94510E1F920F920FB60F9211242F9344
:100D00003F938F939F93AF93BF93809135039091BF
:100D10003603A0913703B09138033091300323E0BC
:100D2000230F2D3720F40196A11DB11D05C026E823
:100D3000230F0296A11DB11D20933003809335032C
:100D400090933603A0933703B09338038091310317
:100D500090913203A0913303B09134030196A11D09
:100D6000B11D8093310390933203A0933303B0936A
:100D70003403BF91AF919F918F913F912F910F902D
:100D80000FBE0F901F9018951F920F920FB60F92E3
:100D900011240BB60F922F933F934F935F936F9352
:100DA0007F938F939F93AF93BF93EF93FF938BEAC0
:100DB00093E00E944803FF91EF91BF91AF919F9103
:100DC0008F917F916F915F914F913F912F910F90F4
:100DD0000BBE0F900FBE0F901F9018951F920F9291
:100DE0000FB60F9211240BB60F922F938F939F93F0
:100DF000EF93FF93E091BB03F091BC038081E091FE
:100E0000C103F091C20382FD12C090818091C4039E
:100E10008F5F8F732091C503821751F0E091C40357
:100E2000F0E0E555FC4F958F8093C40301C08081AD
:100E3000FF91EF919F918F912F910F900BBE0F908B
:100E40000FBE0F901F9018951F920F920FB60F9222
:100E500011240BB60F922F933F934F935F936F9391
:100E60007F938F939F93AF93BF93EF93FF93809163
:100E7000B900887F803609F49CC068F5883209F48F
:100E80005BC090F4803109F454C038F4882309F42D
:100E9000F6C0883009F44DC0F6C0883109F44CC062
:100EA000803209F45DC0EFC0803409F468C048F4B2
:100EB000803309F455C0883309F0E5C08093F60209
:100EC000D8C0803509F44FC0883509F45DC0883436
:100ED00009F0D9C0D6C0883909F4C7C0A8F488374A
:100EE00009F467C038F4883609F463C0803709F420
:100EF00060C0C9C0883809F4B8C0803909F45FC03F
:100F0000803809F0C0C05BC0803B09F486C038F46B
:100F1000803A09F466C0883A09F47FC0B4C0803CC6
:100F200009F4A7C0883C09F4A4C0883B09F48AC02E
:100F3000AAC08091D30210C09091F5028091F40272
:100F4000981770F5E091F50281E08E0F8093F5021D
:100F5000F0E0EC52FD4F80818093BB0085EC86C0B1
:100F60008093F6028EC0E091F50281E08E0F8093AF
:100F7000F5028091BB00F0E0EC52FD4F8083909130
:100F8000F5028091F4026EC0E091F50281E08E0FCF
:100F90008093F5028091BB00F0E0EC52FD4F80831E
:100FA00080911E0381116DC081E080931D0384EA4E
:100FB00061C083E080931F031092D202CFCF809153
:100FC000D202803208F051C0E091D20281E08E0F4F
:100FD0008093D2028091BB00F0E0EE54FD4F8083FD
:100FE000BDCF85EC8093BC0010921F038091D2028C
:100FF000803230F4E091D202F0E0EE54FD4F1082E6
:101000006091D20270E0E0911903F0911A0382EB33
:1010100092E019951092D20236C084E080931F03AB
:101020001092B1021092B002E0911B03F0911C03E8
:1010300019958091B002811105C081E08093B002C2
:1010400010929002E091B10281E08E0F8093B10284
:10105000F0E0E057FD4F80818093BB009091B1029A
:101060008091B002981708F479CF85E88093BC008E
:101070000AC085EC8093BC0010921F0304C010923C
:10108000F6020E941204FF91EF91BF91AF919F91E0
:101090008F917F916F915F914F913F912F910F9021
:1010A0000BBE0F900FBE0F901F901895EBEAF3E068
:1010B0001382128288EE93E0A0E0B0E084839583EF
:1010C000A683B78329E032E03183208325EC30E02A
:1010D0003587248724EC30E03787268720EC30E002
:1010E000318B208B21EC30E0338B228B22EC30E0F3
:1010F000358B248B26EC30E0378B268B118E128EAD
:10110000138E148EE8E4F4E01382128284839583B4
:10111000A683B7838BE192E09183808308957894CE
:1011200084B5826084BD84B5816084BD85B58260EC
:1011300085BD85B5816085BD80916E00816080939D
:101140006E00109281008091810082608093810006
:101150008091810081608093810080918000816016
:10116000809380008091B10084608093B100809171
:10117000B00081608093B000809191008260809384
:101180009100809191008160809391008091900006
:101190008160809390008091A10082608093A10083
:1011A0008091A10081608093A1008091A000816066
:1011B0008093A00080912101826080932101809121
:1011C00021018160809321018091200181608093C1
:1011D000200180917A00846080937A0080917A0067
:1011E000826080937A0080917A00816080937A0097
:1011F00080917A00806880937A001092C1001092EA
:1012000023031092220310922103109220031092C4
:101210001F0381E080931E0310921D0361E084E1AF
:101220000E947F0161E085E10E947F018091B90009
:101230008E7F8093B9008091B9008D7F8093B90033
:1012400088E48093B80085E48093BC0085E992E04F
:1012500090931C0380931B0386E992E090931A03FA
:1012600080931903E091BB03F091BC0382E080837B
:10127000E091B703F091B8031082E091B903F091C7
:10128000BA0380E180831092C303E091BF03F09121
:10129000C00386E08083E091BD03F091BE038081AE
:1012A00080618083E091BD03F091BE0380818860FE
:1012B0008083E091BD03F091BE03808180688083CC
:1012C000E091BD03F091BE0380818F7D808384E136
:1012D00090E0A0E0B0E08093AF039093B003A093C0
:1012E000B103B093B20380E492E00E941D06FF2494
:1012F000F394CC24C394D12CC2E0D0E08091280395
:10130000811156C099E0E92E07E110E028E030E0B5
:1013100049E150E068E170E089E393E00E94B6059E
:101320002DE0E22E0DE110E029E030E04BE150E04D
:101330006AE170E08CE493E00E94B60538E0E32EA9
:101340000EE110E027E030E040E250E061E270E0C2
:101350008FE593E00E94B6054CE0E42E04E210E035
:1013600024E030E042E250E063E270E082E793E0A4
:101370000E94B6055EE0E52E08E210E025E030E0D0
:1013800046E250E067E270E085E893E00E94B6052F
:101390006CE4E62E0AE210E026E030E04CE250E099
:1013A0006DE270E088E993E00E94B605F0922803B0
:1013B0008FE492E00E941D068BEA93E00E943203C4
:1013C000892B09F473C08BEA93E00E94D002803726
:1013D000910599F13CF48136910599F08436910597
:1013E00081F03CC08337910589F087379105B1F5CD
:1013F00087E592E00E941D06D0922703C092260343
:1014000039C0D0932703C093260334C084E090E012
:1014100090932703809326032DC08D32910509F404
:101420001BC1C0970A9708F417C1EE32F10509F401
:1014300013C18BEA93E00E94D0020E94F202FC01E9
:1014400097FFEBCF60E070E0CB01609301027093F7
:10145000020280930302909304020CC010922703AF
:1014600010922603109225031092240385E692E041
:101470000E941D060E94F202FC0197FD0DC08D32F4
:10148000910509F452C1C0970A9708F44EC18BEA3E
:1014900093E00E94D002EECF812C912C5401FAE00F
:1014A0008F0E911C90922503809224038091240337
:1014B00090912503009709F4A5C00E9434068091FD
:1014C0002603909127030E94340680912603909171
:1014D00027038230910519F178F4009709F486C04A
:1014E000019709F083C0609101027091020280911E
:1014F00003029091040277C08330910509F440C043
:10150000049709F073C08091010290910202A091AA
:101510000302B0910402BC01CD01905864C08090D8
:10152000010290900202A0900302B09004022401F4
:10153000350177FA709477F87094B301A20189E3CA
:1015400093E00E94CC04B301A2018CE493E00E94DA
:10155000CC04B301A2018FE593E00E94CC04B50155
:10156000A40182E793E00E94CC04B501A40185E8C0
:1015700093E00E94CC04B501A40188E993E030C057
:101580008090010290900202A0900302B0900402A9
:101590002401350177FA709477F87094B301A201B1
:1015A00082E793E00E94CC04B301A20185E893E0B6
:1015B0000E94CC04B301A20188E993E00E94CC040C
:1015C000B501A40189E393E00E94CC04B501A40114
:1015D0008CE493E00E94CC04B501A4018FE593E074
:1015E0000E94CC0405C00E949B0502C00E942B06ED
:1015F0008091240390912503019790932503809374
:10160000240302C00E942B0680910002882309F166
:1016100009E313E0580160E0F50184850E947F0131
:10162000F3E1AF0EB11C8BEAA81683E0B80699F778
:101630000E945E0261E0F80184850E947F010D5ED8
:101640001F4FF3E00B3A1F07A9F70E945E021092AA
:1016500000020E94D90352CE412C512C80E8682E02
:101660008FE3782E812C912C540110E000E0E130C2
:10167000F10569F1ED32F10539F1EE32F10531F1A3
:10168000CF01C0970A9718F5AAE0B0E0A501940130
:101690000E94F30C4F01FF0FAA08BB08860E971E8D
:1016A000A81EB91E80E3881A9108A108B108112369
:1016B00071F02DEC3CEC4CEC5DE3C301B2010E94F7
:1016C000350C2B013C0103C001E001C011E08BEAA5
:1016D00093E00E94D0020E94F202FC01C0970A9798
:1016E00030F2EE32F10519F411115BC0C0CFE130D8
:1016F000F10509F4BCCF002341F0B094A09490947C
:101700008094811C911CA11CB11C112349F0C501BE
:10171000B4010E94D60BA30192010E94350C95CE14
:10172000C501B4010E94D60B90CE812C912C54019E
:1017300010E0E130F105E1F0ED32F105C1F0CF014B
:10174000C0970A97A8F4AAE0B0E0A50194010E940E
:10175000F30C4F01FF0FAA08BB08860E971EA81EA8
:10176000B91EE0E38E1A9108A108B10801C011E08A
:101770008BEA93E00E94D0020E94F202FC01C09723
:101780000A97B8F2E130F105A1F2112309F487CEEE
:10179000B094A09490948094811C911CA11CB11CC5
:1017A0007ECE0111AACFB3CFE89409C097FB3EF4D7
:1017B00090958095709561957F4F8F4F9F4F99239E
:1017C000A9F0F92F96E9BB279395F695879577951C
:1017D0006795B795F111F8CFFAF4BB0F11F460FFDC
:1017E0001BC06F5F7F4F8F4F9F4F16C0882311F034
:1017F00096E911C0772321F09EE8872F762F05C048
:10180000662371F096E8862F70E060E02AF09A95E2
:10181000660F771F881FDAF7880F9695879597F9D7
:101820000895990F0008550FAA0BE0E8FEEF161671
:101830001706E807F907C0F012161306E407F507C4
:1018400098F0621B730B840B950B39F40A2661F038
:10185000232B242B252B21F408950A2609F4A140DB
:10186000A6958FEF811D811D08950E94480C0C9450
:10187000B90C0E94AB0C38F00E94B20C20F09523FA
:1018800011F00C94A20C0C94A80C11240C94ED0CE7
:101890000E94CA0C70F3959FC1F3950F50E0551F3D
:1018A000629FF001729FBB27F00DB11D639FAA27B5
:1018B000F00DB11DAA1F649F6627B00DA11D661F04
:1018C000829F2227B00DA11D621F739FB00DA11D25
:1018D000621F839FA00D611D221F749F3327A00DDF
:1018E000611D231F849F600D211D822F762F6A2F7B
:1018F00011249F5750409AF0F1F088234AF0EE0FE0
:10190000FF1FBB1F661F771F881F91505040A9F70C
:101910009E3F510580F00C94A20C0C94ED0C5F3F9F
:10192000E4F3983ED4F3869577956795B795F79548
:10193000E7959F5FC1F7FE2B880F911D96958795C0
:1019400097F9089597F99F6780E870E060E008953F
:101950009FEF80EC089500240A94161617061806C7
:101960000906089500240A941216130614060506A3
:101970000895092E0394000C11F4882352F0BB0F34
:1019800040F4BF2B11F460FF04C06F5F7F4F8F4F97
:101990009F4F089557FD9058440F551F59F05F3FD2
:1019A00071F04795880F97FB991F61F09F3F79F081
:1019B00087950895121613061406551FF2CF469503
:1019C000F1DF08C0161617061806991FF1CF869585
:1019D0007105610508940895E894BB276627772769
:1019E000CB0197F908950E94FE0CA59F900DB49F1E
:1019F000900DA49F800D911D11240895A29FB00108
:101A0000B39FC001A39F700D811D1124911DB29F32
:101A1000700D811D1124911D0895A1E21A2EAA1B9B
:101A2000BB1BFD010DC0AA1FBB1FEE1FFF1FA2178E
:101A3000B307E407F50720F0A21BB30BE40BF50B8B
:101A4000661F771F881F991F1A9469F76095709514
:101A5000809590959B01AC01BD01CF010895EE0FDB
:101A6000FF1F881F8BBF0790F691E02D19945058E7
:101A7000BB27AA270E944F0D0C94B90C0E94AB0CF7
:101A800038F00E94B20C20F039F49F3F19F426F48C
:101A90000C94A80C0EF4E095E7FB0C94A20CE92F33
:101AA0000E94CA0C58F3BA17620773078407950798
:101AB00020F079F4A6F50C94EC0C0EF4E0950B2EC6
:101AC000BA2FA02D0B01B90190010C01CA01A00190
:101AD0001124FF27591B99F0593F50F4503E68F1EB
:101AE0001A16F040A22F232F342F4427585FF3CF2C
:101AF000469537952795A795F0405395C9F77EF4FD
:101B00001F16BA0B620B730B840BBAF09150A1F045
:101B1000FF0FBB1F661F771F881FC2F70EC0BA0FCB
:101B2000621F731F841F48F4879577956795B79553
:101B3000F7959E3F08F0B0CF9395880F08F099274E
:101B4000EE0F9795879508950E94B80D0C94B90CE7
:101B50000E94B20C58F00E94AB0C40F029F45F3F99
:101B600029F00C94A20C51110C94ED0C0C94A80CBF
:101B70000E94CA0C68F39923B1F3552391F3951B86
:101B8000550BBB27AA2762177307840738F09F5F9E
:101B90005F4F220F331F441FAA1FA9F335D00E2E0B
:101BA0003AF0E0E832D091505040E695001CCAF778
:101BB0002BD0FE2F29D0660F771F881FBB1F26173B
:101BC00037074807AB07B0E809F0BB0B802DBF0112
:101BD000FF2793585F4F3AF09E3F510578F00C94E1
:101BE000A20C0C94ED0C5F3FE4F3983ED4F3869581
:101BF00077956795B795F7959F5FC9F7880F911D02
:101C00009695879597F90895E1E0660F771F881FED
:101C1000BB1F621773078407BA0720F0621B730BA0
:101C2000840BBA0BEE1F88F7E09508950E941D0EF5
:101C30006894B1110C94ED0C08950E94D20C88F0B8
:101C40009F5798F0B92F9927B751B0F0E1F0660F80
:101C5000771F881F991F1AF0BA95C9F714C0B130C1
:101C600091F00E94EC0CB1E008950C94EC0C672FFD
:101C7000782F8827B85F39F0B93FCCF386957795F0
:101C80006795B395D9F73EF49095809570956195D9
:101C90007F4F8F4F9F4F08950E94110C08F48FEFD4
:101CA000089581E090E0F8940C94560EF894FFCFDC
:101CB000010000C842000000006A039702C102B799
:101CC000033203D002E402000000009D0470040807
:101CD0000644046804540445040D0A0053746F70EC
:101CE00070696E6720616C6C206D6F746F72730029
:101CF000537461727465642073657269616C004924
:101D00006E206C6F6F7000476F696E6720666F7230
:101D10007761726400696E2064656661756C740039
:00000001FF
