:100000000C942D010C945E010C945E010C945E0125
:100010000C945E010C945E010C945E010C945E01E4
:100020000C945E010C945E010C945E010C945E01D4
:100030000C945E010C945E010C945E010C945E01C4
:100040000C945E010C945E010C945E010C945E01B4
:100050000C945E010C945E010C945E010C94B90446
:100060000C945E010C942D050C9403050C945E0118
:100070000C945E010C945E010C945E010C945E0184
:100080000C945E010C945E010C945E010C945E0174
:100090000C945E010C945E010C945E010C945E0164
:1000A0000C945E010C945E010C945E010C945E0154
:1000B0000C945E010C945E010C945E010C945E0144
:1000C0000C945E010C945E010C945E010C945E0134
:1000D0000C945E010C945E010C945E010C945E0124
:1000E0000C945E018F019201810185018901C90192
:1000F00096019A01A001A401A801AE01B201B601C6
:10010000C901BC01C001C4010C94A8010C94C00138
:100110000C94C9010C9402030C9489010C941B02E9
:100120000C94AE010C949A010C94C4010C949201AD
:100130000C94BC010C947D020C94B6010C949601B5
:100140000C9481010C94B2010C948F010C942F0239
:100150000C94B5020C9463050C94DE010C940C0213
:100160000C9485010C94A4010C94A00100002200C1
:10017000250028002B002E00310034000201000071
:10018000050108010B010505050507050808080814
:10019000020202020A0A080804040404010101011F
:1001A000010101010303030303030303040707071A
:1001B0000C0C0C0C0C0C0C0C0202020206060606BF
:1001C000060606060B0B0B0B0B0B0B0B010210208C
:1001D000200808102040102040800201020108047D
:1001E0000201010204081020408080402010080411
:1001F000020180040201804020100804020108046A
:1002000002010102040810204080010204081020AD
:10021000408000000A0B02090C0D0E0807030401C0
:1002200000000000000000000000000000000000CE
:10023000000000000000000000000000000012119B
:10024000100000000000000000000000000000009E
:100250000000000000000000630511241FBECFEF66
:10026000D1E2DEBFCDBF00E00CBF23E0A2EBB2E0E5
:1002700001C01D92A73DB207E1F712E0A0E0B2E095
:10028000E0E9F8E100E00BBF02C007900D92A23B4D
:10029000B107D9F711E0CDE2D1E000E006C0219727
:1002A0000109802FFE010E941A0BCC32D10780E099
:1002B0000807A9F70E9465060C94460C0C940000F0
:1002C000362F90E0FC01EE5EFD4F4491FC01E453BB
:1002D000FE4F2491FC01EA57FE4F9491992309F4B3
:1002E0006CC0442309F455C050E0FA013197E23163
:1002F000F10508F04EC08827EE58FF4F8F4F0C9441
:100300001A0B809180008F7707C0809180008F7DCD
:1003100003C080918000877F809380003AC084B5BD
:100320008F7702C084B58F7D84BD33C08091B000CB
:100330008F7703C08091B0008F7D8093B00029C07B
:10034000809190008F7707C0809190008F7D03C0CF
:1003500080919000877F809390001BC08091A000C7
:100360008F7707C08091A0008F7D03C08091A0008F
:10037000877F8093A0000DC0809120018F7707C0F8
:10038000809120018F7D03C080912001877F809321
:100390002001E92FF0E0EE0FFF1FE459FE4FA59179
:1003A000B4919FB7F894311104C08C912095282303
:1003B00002C0EC912E2B2C939FBF0895CF92DF9219
:1003C000EF92FF920F931F93CF93DF936C017A010B
:1003D0008B01C0E0D0E0CE15DF0581F0D8016D9132
:1003E0008D01D601ED91FC910190F081E02DC601C7
:1003F0001995892B11F02196EECF7E01C701DF916F
:10040000CF911F910F91FF90EF90DF90CF900895C3
:10041000089580E090E00895FC01538D448D252FD0
:1004200030E0842F90E0821B930B541710F0CF968E
:10043000089501970895FC01918D828D981761F0C0
:10044000828DDF01A80FB11D5D968C91928D9F5F0B
:100450009F73928F90E008958FEF9FEF0895FC01B6
:10046000918D828D981731F0828DE80FF11D858D69
:1004700090E008958FEF9FEF08952FB7F894809143
:10048000C4029091C502A091C602B091C7022FBFCD
:100490008093D0029093D102A093D202B093D30262
:1004A00088EC92E00E942F0297FF26C02FB7F894A5
:1004B0008091C4029091C502A091C602B091C7027A
:1004C0002FBF4091D0025091D1026091D202709121
:1004D000D302841B950BA60BB70B4091CC02509115
:1004E000CD026091CE027091CF0284179507A607C6
:1004F000B707B0F28FEF9FEF0895FC01918D228D29
:10050000892F90E0805C9F4F821B91098F73992700
:10051000089588EC92E00E947D0221E0892B09F485
:1005200020E0822F0895FC01848DDF01A80FB11D0A
:10053000A35ABF4F2C91848D90E001968F73992719
:10054000848FA689B7892C93A089B1898C918370F7
:1005500080648C93938D848D981306C00288F389F0
:10056000E02D80818F7D80830895EF92FF920F931D
:100570001F93CF93DF93EC0181E0888F9B8D8C8D4F
:10058000981305C0E889F989808185FD26C0F62E7B
:100590000B8D10E00F5F1F4F0F731127E02E8C8D16
:1005A000E8120CC00FB607FCFACFE889F989808100
:1005B00085FFF5CFCE010E949302F1CF8B8DFE0116
:1005C000E80FF11DE35AFF4FF0829FB7F8940B8FAD
:1005D000EA89FB89808180620AC09FB7F894EE891E
:1005E000FF896083E889F9898081837080648083D2
:1005F0009FBF81E090E0DF91CF911F910F91FF901D
:10060000EF900895CF93DF93EC01888D8823C9F094
:10061000EA89FB89808185FD05C0A889B9898C910B
:1006200086FD0FC00FB607FCF5CF808185FFF2CFA6
:10063000A889B9898C9185FFEDCFCE010E949302E4
:10064000E7CFDF91CF91089580E090E0892B21F0F2
:100650000E948902811125C080E090E0892B41F041
:1006600080E090E0892B21F00E94000081111CC0E5
:1006700080E090E0892B41F080E090E0892B21F030
:100680000E940000811113C080E090E0892BA1F04E
:1006900080E090E0892B81F00E94000081110AC067
:1006A00008950E940000D8CF0E940000E1CF0E9470
:1006B0000000EACF0C9400000895009769F0FC0157
:1006C00001900020E9F73197AF01481B590BBC019D
:1006D00088EC92E00C94DE0180E090E008958F9227
:1006E0009F92AF92BF920F931F93CF93DF93CDB79B
:1006F000DEB7A1970FB6F894DEBF0FBECDBF19A22B
:10070000423008F44AE08E010F5D1F4F842E912C79
:10071000A12CB12CA50194010E94F80AE62FB90181
:10072000CA0101501109EA3014F4E05D01C0E95C2E
:10073000D801EC93232B242B252B61F7C8010E94B1
:100740005D03A1960FB6F894DEBF0FBECDBFDF915B
:10075000CF911F910F91BF90AF909F908F90089570
:10076000CF93DF930E945D03EC0182E192E00E944F
:100770005D038C0F9D1FDF91CF910895CF92DF9283
:10078000EF92FF92CF93DF936C01990FEE08FF0871
:10079000F7FE13C06DE288EC92E00E94B502EC0116
:1007A00066277727CB016C197D098E099F094AE0DE
:1007B0000E946F03C80FD91F06C04AE0C701B601E7
:1007C0000E946F03EC0182E192E00E945D038C0FB6
:1007D0009D1FDF91CF91FF90EF90DF90CF90089514
:1007E0008F929F92AF92BF92CF92DF92EF92FF9241
:1007F0000F931F93CF93DF93EC016A017B0120E0FD
:1008000030E040E752E4C701B6010E94200A4B01E4
:100810005C01688179818A819B819B01AC010E9486
:10082000230B9B01AC01C501B4010E948F0B2C81ED
:100830003D814E815F810E948F0B20E030E040E8D7
:1008400055E40E94200A4B015C0120E030E0A90140
:100850000E94370C18161CF4C501B40103C0C50171
:10086000B40190580E94010C8B0177FF0FC085E105
:1008700092E00E94B003C8010E94BE0381E292E0B0
:100880000E94B00381E090E00E94BE0311E020E0EE
:1008900030E0A901C701B6010E94370C18160CF010
:1008A00010E0612F8E85DF91CF911F910F91FF9006
:1008B000EF90DF90CF90BF90AF909F908F900C946F
:1008C0006001CF92DF92EF92FF92BC01990F880BEB
:1008D000990B0E94C1096B017C01AB01BC0185E64B
:1008E00093E00E94F003B701A60188E793E00E941D
:1008F000F003B701A6018BE893E0FF90EF90DF9043
:10090000CF900C94F003CF92DF92EF92FF92BC0154
:10091000990F880B990B0E94C1096B017C01AB01F7
:10092000BC018EE993E00E94F003B701A60181EBC0
:1009300093E00E94F003B701A60184EC93E0FF90DE
:10094000EF90DF90CF900C94F003CF93DF93C5E648
:10095000D3E040E050E0BA01CE010E94F00363967C
:1009600083E0C73DD807A9F7DF91CF9108950E9492
:10097000410C1F920F920FB60F9211242F933F93A9
:100980008F939F93AF93BF938091C4029091C502C0
:10099000A091C602B091C7023091C30223E0230F99
:1009A0002D3720F40196A11DB11D05C026E8230FA7
:1009B0000296A11DB11D2093C3028093C40290939F
:1009C000C502A093C602B093C7028091BF02909166
:1009D000C002A091C102B091C2020196A11DB11D39
:1009E0008093BF029093C002A093C102B093C20251
:1009F000BF91AF919F918F913F912F910F900FBE1B
:100A00000F901F9018951F920F920FB60F921124FE
:100A10000BB60F922F933F934F935F936F937F93F8
:100A20008F939F93AF93BF93EF93FF9388EC92E0E4
:100A30000E949302FF91EF91BF91AF919F918F918F
:100A40007F916F915F914F913F912F910F900BBECE
:100A50000F900FBE0F901F9018951F920F920FB618
:100A60000F9211240BB60F922F938F939F93EF93B6
:100A7000FF93E091D802F091D9028081E091DE02EB
:100A8000F091DF0282FD12C090818091E1028F5FC0
:100A90008F732091E202821751F0E091E102F0E0C1
:100AA000E853FD4F958F8093E10201C08081FF9153
:100AB000EF919F918F912F910F900BBE0F900FBED2
:100AC0000F901F901895E8ECF2E01382128288EEE6
:100AD00093E0A0E0B0E084839583A683B78384E0AD
:100AE00092E09183808385EC90E09587848784EC05
:100AF00090E09787868780EC90E0918B808B81ECEB
:100B000090E0938B828B82EC90E0958B848B86ECCB
:100B100090E0978B868B118E128E138E148EE5E6E5
:100B2000F3E04BED5FE069E470E44083518362835E
:100B3000738380E090E4A2E1B5E484839583A68387
:100B4000B78328E130E03587248729E130E0378713
:100B5000268728E030E0318B208B27E130E0338797
:100B6000228729E0228B438B548B658B768B878B76
:100B7000908FA18FB28F2AE130E030A3278F2BE135
:100B800030E032A321A329E030E034A323A32DE1F8
:100B900030E0368F258F2DE025A346A357A360A70D
:100BA00071A782A793A7A4A7B5A721E230E033AB32
:100BB00022AB20E230E035AB24AB27E030E037ABAE
:100BC00026AB2EE130E031AB20AB28E020AF41AFC7
:100BD00052AF63AF74AF8093A2039093A303A0932B
:100BE000A403B093A50323E230E03093AB0320933A
:100BF000AA0322E230E03093AD032093AC0324E05B
:100C000030E03093AF032093AE0324E230E0309322
:100C1000A9032093A8032CE02093B0034093B103D1
:100C20005093B2036093B3037093B4038093B503FE
:100C30009093B603A093B703B093B80327E230E0D4
:100C40003093BE032093BD0326E230E03093C0030F
:100C50002093BF0325E030E03093C2032093C1030B
:100C600028E230E03093BC032093BB032EE02093B6
:100C7000C3034093C4035093C5036093C6037093AA
:100C8000C7038093C8039093C903A093CA03B0938A
:100C9000CB038DE290E09093D1038093D0038CE25C
:100CA00090E09093D3038093D20386E090E09093FA
:100CB000D5038093D4038AE290E09093CF0380938E
:100CC000CE038CE48093D6030895789484B5826033
:100CD00084BD84B5816084BD85B5826085BD85B5E0
:100CE000816085BD80916E00816080936E0010925E
:100CF00081008091810082608093810080918100D9
:100D00008160809381008091800081608093800069
:100D10008091B10084608093B1008091B0008160C7
:100D20008093B000809191008260809391008091C7
:100D30009100816080939100809190008160809308
:100D400090008091A10082608093A1008091A10019
:100D500081608093A1008091A00081608093A000B9
:100D60008091210182608093210180912101816025
:100D700080932101809120018160809320018091E6
:100D80007A00846080937A0080917A0082608093F8
:100D90007A0080917A00816080937A0080917A0055
:100DA000806880937A001092C100E091D802F0919F
:100DB000D90282E08083E091D402F091D5021082C2
:100DC000E091D602F091D70280E180831092E00298
:100DD000E091DC02F091DD0286E08083E091DA02AE
:100DE000F091DB02808180618083E091DA02F091F2
:100DF000DB02808188608083E091DA02F091DB027F
:100E0000808180688083E091DA02F091DB0280814A
:100E10008F7D808382E090E0A0E0B0E08093CC0200
:100E20009093CD02A093CE02B093CF028CE292E0D9
:100E30000E94B00305E613E0C0E0D0E040E050E0DF
:100E4000BA01C8010E94F00361E0F80184850E94A4
:100E5000600180E492E00E945D03CE010E94BE0327
:100E600021960D5E1F4FC630D10541F7C7EDD3E087
:100E700088EC92E00E947D02892B09F42AC188EC5B
:100E800092E00E941B028436910509F01CC188EC97
:100E900092E00E947D02892B09F41BC188EC92E04C
:100EA0000E941B0281369105A9F08C36910509F448
:100EB000E4C006C18D32910509F4B2C1C0970A970A
:100EC00008F4AEC1EE32F10509F4AAC188EC92E053
:100ED0000E941B020E943D02FC0197FFEBCFC12C38
:100EE000D12C7601C092B802D092B902E092BA0237
:100EF000F092BB0220E030E0A901C701B6010E94D8
:100F0000370C181624F0F7FAF094F7F8F094C09222
:100F1000B402D092B502E092B602F092B70285E533
:100F200092E00E94B003C090B402D090B502E0906D
:100F3000B602F090B702A7019601C701B6010E9460
:100F40003C0C882319F083E692E01AC04601570151
:100F5000E894B7F82FEF3FEF4FE75FE7C501B40123
:100F60000E943C0C81110FC02FEF3FEF4FE75FE76E
:100F7000C501B4010E94BA0918162CF487E692E064
:100F80000E945D0376C02FEF3FEF4FE75FE4C7019C
:100F9000B6010E94370C18161CF48BE692E0F0CFD5
:100FA0002FEF3FEF4FE75FECC701B6010E94BA0990
:100FB00087FDF3CF20E030E0A901C701B6010E9410
:100FC000BA0987FF09C06DE288EC92E00E94B50281
:100FD000F7FAF094F7F8F0942AE037ED43EA5BE390
:100FE000C701B6010E94230B4B015C010E94080C53
:100FF0006B017C010E94BF099B01AC01C501B401DA
:101000000E94220B4B015C014AE0C701B6010E941D
:101010006F036EE288EC92E00E94B50220E030E0BF
:1010200040E251E4C501B4010E94200A4B015C0179
:101030000E94080C6B01E12CF12C4AE0C701B601BB
:101040000E946F03C701B6010E94BF099B01AC015A
:10105000C501B4010E94220B20E030E040E251E4DF
:101060000E94200A0E94080C80E090E04AE00E9462
:101070006F0382E192E00E945D030E943D02FC0149
:1010800097FD0DC08D32910509F435C1C0970A97BF
:1010900008F431C188EC92E00E941B02EECFC12C13
:1010A000D12C7601D092B302C092B2028FE692E0C8
:1010B0000E94B0038091B2029091B3020E94BE03DD
:1010C0008AE792E004C00E94A50489E992E00E94A8
:1010D000B0038091BE02882349F08091BC029091B8
:1010E000BD0201969093BD028093BC028091BC0228
:1010F0009091BD02843F914041F41092BD02109244
:10110000BC020E94A5041092BE028090B80290908A
:10111000B902A090BA02B090BB0220E030E0A90171
:10112000C501B4010E94BA09C090B202D090B302C6
:1011300087FF2BC08090B4029090B502A090B602B9
:10114000B090B702662777276C197D09072E000C2F
:10115000880B990B0E94C109A50194010E94200AE5
:101160000E94010CCB010E948304B601DD0C880BA8
:10117000990B0E94C109A50194010E94200A0E94B6
:10118000010CCB010E94610448C020E030E0A901BD
:10119000C501B4010E94370C18165CF58090B402AA
:1011A0009090B502A090B602B090B702662777275C
:1011B0006C197D09072E000C880B990B0E94C10940
:1011C000A50194010E94200A0E94010CCB010E94FB
:1011D0006104B601DD0C880B990B0E94C109A501C1
:1011E00094010E94200A0E94010CCB010E948304FA
:1011F00014C005E613E00D2C000CEE08FF08C70133
:10120000B6010E94C109AB01BC01C8010E94F003F4
:101210000D5E1F4FC017D10791F70E94240328CEFF
:10122000812C912C80E8A82E8FE3B82EC12CD12CD4
:10123000760110E000E0E130F10569F1ED32F105F1
:1012400039F1EE32F10531F1CF01C0970A9718F567
:10125000AAE0B0E0A70196010E94DE0A6F01FF0F2D
:10126000EE08FF08C60ED71EE81EF91EF0E3CF1ADF
:10127000D108E108F108112371F02DEC3CEC4CECA5
:101280005DE3C501B4010E94200A4B015C0103C06B
:1012900001E001C011E088EC92E00E941B020E9474
:1012A0003D02FC01C0970A9730F2EE32F10519F4C5
:1012B00011115DC0C0CFE130F10509F4BCCF0023AE
:1012C00041F0F094E094D094C094C11CD11CE11C76
:1012D000F11C112349F0C701B6010E94C109A50103
:1012E00094010E94200A04C0C701B6010E94C109EE
:1012F0006B017C01F7CDC12CD12C760110E0E130DF
:10130000F105E1F0ED32F105C1F0CF01C0970A9788
:10131000A8F4AAE0B0E0A70196010E94DE0A6F01DE
:10132000FF0FEE08FF08C60ED71EE81EF91E20E3C9
:10133000C21AD108E108F10801C011E088EC92E07E
:101340000E941B020E943D02FC01C0970A97B8F25E
:10135000E130F105A1F2112309F4A4CEF094E09458
:10136000D094C094C11CD11CE11CF11C9BCE011176
:10137000A8CFB1CF0E94FC0908F481E00895E89459
:1013800009C097FB3EF490958095709561957F4FCD
:101390008F4F9F4F9923A9F0F92F96E9BB2793957B
:1013A000F695879577956795B795F111F8CFFAF48B
:1013B000BB0F11F460FF1BC06F5F7F4F8F4F9F4FBC
:1013C00016C0882311F096E911C0772321F09EE81A
:1013D000872F762F05C0662371F096E8862F70E080
:1013E00060E02AF09A95660F771F881FDAF7880F5A
:1013F0009695879597F90895990F0008550FAA0BB0
:10140000E0E8FEEF16161706E807F907C0F0121617
:101410001306E407F50798F0621B730B840B950B1A
:1014200039F40A2661F0232B242B252B21F408956F
:101430000A2609F4A140A6958FEF811D811D08950C
:101440000E94330A0C94A40A0E94960A38F00E9463
:101450009D0A20F0952311F00C948D0A0C94930AA8
:1014600011240C94D80A0E94B50A70F3959FC1F319
:10147000950F50E0551F629FF001729FBB27F00D42
:10148000B11D639FAA27F00DB11DAA1F649F662797
:10149000B00DA11D661F829F2227B00DA11D621FE6
:1014A000739FB00DA11D621F839FA00D611D221FA0
:1014B000749F3327A00D611D231F849F600D211D84
:1014C000822F762F6A2F11249F5750409AF0F1F007
:1014D00088234AF0EE0FFF1FBB1F661F771F881F70
:1014E00091505040A9F79E3F510580F00C948D0A11
:1014F0000C94D80A5F3FE4F3983ED4F38695779531
:101500006795B795F795E7959F5FC1F7FE2B880F15
:10151000911D9695879597F9089597F99F6780E8AB
:1015200070E060E008959FEF80EC089500240A9435
:101530001616170618060906089500240A941216AE
:101540001306140605060895092E0394000C11F4E1
:10155000882352F0BB0F40F4BF2B11F460FF04C08E
:101560006F5F7F4F8F4F9F4F089557FD9058440FE7
:10157000551F59F05F3F71F04795880F97FB991FF2
:1015800061F09F3F79F087950895121613061406AF
:10159000551FF2CF4695F1DF08C01616170618063C
:1015A000991FF1CF86957105610508940895E89417
:1015B000BB2766277727CB0197F908950E94E90A90
:1015C000A59F900DB49F900DA49F800D911D112497
:1015D0000895A29FB001B39FC001A39F700D811D0C
:1015E0001124911DB29F700D811D1124911D08952C
:1015F000A1E21A2EAA1BBB1BFD010DC0AA1FBB1F17
:10160000EE1FFF1FA217B307E407F50720F0A21B88
:10161000B30BE40BF50B661F771F881F991F1A94F5
:1016200069F760957095809590959B01AC01BD011F
:10163000CF010895EE0FFF1F881F8BBF0790F69113
:10164000E02D19945058BB27AA270E943A0B0C94FE
:10165000A40A0E94960A38F00E949D0A20F039F4EC
:101660009F3F19F426F40C94930A0EF4E095E7FBDF
:101670000C948D0AE92F0E94B50A58F3BA17620735
:1016800073078407950720F079F4A6F50C94D70A20
:101690000EF4E0950B2EBA2FA02D0B01B90190018D
:1016A0000C01CA01A0011124FF27591B99F0593FD1
:1016B00050F4503E68F11A16F040A22F232F342F19
:1016C0004427585FF3CF469537952795A795F04067
:1016D0005395C9F77EF41F16BA0B620B730B840B7C
:1016E000BAF09150A1F0FF0FBB1F661F771F881F34
:1016F000C2F70EC0BA0F621F731F841F48F487958C
:1017000077956795B795F7959E3F08F0B0CF93957D
:10171000880F08F09927EE0F9795879508950E94F6
:10172000A30B0C94A40A0E949D0A58F00E94960AEA
:1017300040F029F45F3F29F00C948D0A51110C946C
:10174000D80A0C94930A0E94B50A68F39923B1F35E
:10175000552391F3951B550BBB27AA2762177307D7
:10176000840738F09F5F5F4F220F331F441FAA1F6B
:10177000A9F335D00E2E3AF0E0E832D09150504027
:10178000E695001CCAF72BD0FE2F29D0660F771FD5
:10179000881FBB1F261737074807AB07B0E809F0BB
:1017A000BB0B802DBF01FF2793585F4F3AF09E3F40
:1017B000510578F00C948D0A0C94D80A5F3FE4F33D
:1017C000983ED4F3869577956795B795F7959F5F83
:1017D000C9F7880F911D9695879597F90895E1E0CF
:1017E000660F771F881FBB1F621773078407BA072E
:1017F00020F0621B730B840BBA0BEE1F88F7E09589
:1018000008950E94080C6894B1110C94D80A0895A8
:101810000E94BD0A88F09F5798F0B92F9927B751B9
:10182000B0F0E1F0660F771F881F991F1AF0BA9584
:10183000C9F714C0B13091F00E94D70AB1E0089501
:101840000C94D70A672F782F8827B85F39F0B93FF3
:10185000CCF3869577956795B395D9F73EF4909537
:101860008095709561957F4F8F4F9F4F08950E948F
:10187000FC0908F48FEF08950E94FC09880B990B6E
:10188000089581E090E0F8940C94460CF894FFCF12
:1018900000000000B502DE010C0202037D021B0203
:1018A0002F020D0A005370656564207761733A203A
:1018B0000053706565642069733A2000536572694E
:1018C000616C20696E697469616C697A65642E0067
:1018D000496E697469616C697A696E67206D6F74AD
:1018E0006F723A20005475726E20666163746F7275
:1018F0003A20006E616E00696E66006F7666005673
:10190000656C6F636974793A20004E6F74206120B2
:101910007265636F676E697A656420647269766563
:1019200020636F6D6D616E64004E6F742061207274
:1019300065636F676E697A656420636F6D6D616E54
:02194000640041
:00000001FF
