:100000000C944C010C947D010C947D010C947D01A9
:100010000C947D010C947D010C947D010C947D0168
:100020000C947D010C947D010C947D010C947D0158
:100030000C947D010C947D010C947D010C947D0148
:100040000C947D010C947D010C947D010C947D0138
:100050000C947D010C947D010C947D010C94D107CE
:100060000C947D010C94A6030C947C030C947D01EC
:100070000C947D010C947D010C947D010C947D0108
:100080000C947D010C947D010C947D010C947D01F8
:100090000C947D010C947D010C947D010C94BC04A6
:1000A0000C947D010C947D010C947D010C947D01D8
:1000B0000C947D010C947D010C947D010C947D01C8
:1000C0000C947D010C947D010C947D010C947D01B8
:1000D0000C947D010C947D010C947D010C947D01A8
:1000E0000C947D014607490738073C074007800705
:1000F0004D07510757075B075F07650769076D07DE
:100100008007730777077B070C944D070C947707DC
:100110000C9473070C9477030C94B80B0C946D0734
:100120000C94AB010C9449070C94CE010C941A0367
:100130000C9480010C9412030C945B070C947F01C7
:100140000C943C070C9469070C9451070C946507B8
:100150000C94DC010C9446070C9414020C94570781
:100160000C94EF020C9461020C9440070C948101F2
:100170000C94EE020C9438070C94FE020C94470386
:100180000C945F070C9480070C947B070C94BA01C5
:1001900000002100240027002A002D003000330039
:1001A00001010000040107010A01000022002500EE
:1001B00028002B002E003100340002010000050150
:1001C00008010B01050505050705080808080202D6
:1001D00002020A0A080804040404010101010101E1
:1001E00001010303030303030303040707070C0CC4
:1001F0000C0C0C0C0C0C020202020606060606068B
:1002000006060B0B0B0B0B0B0B0B0102102020082F
:100210000810204010204080020102010804020161
:1002200001020408102040808040201008040201D0
:100230008004020180402010080402010804020129
:1002400001020408102040800102040810204080B0
:1002500000000A0B02090C0D0E0807030401000040
:10026000000000000000000000000000000000008E
:10027000000000000000000000000000121110004B
:10028000000000000000000000000000000000006E
:10029000000000000000B80B11241FBECFEFD1E218
:1002A000DEBFCDBF00E00CBF24E0A6EBB2E001C092
:1002B0001D92AB39B207E1F712E0A0E0B2E0E8EA44
:1002C000FEE100E00BBF02C007900D92A63BB10714
:1002D000D9F711E0CCE4D1E000E006C02197010994
:1002E000802FFE010E94260ECB34D10780E0080744
:1002F000A9F70E941B080C94520F0C94000008955B
:100300000895CF92DF92EF92FF920F931F93CF93B6
:10031000DF936C017A018B01C0E0D0E0CE15DF05E0
:1003200081F0D8016D918D01D601ED91FC91019084
:10033000F081E02DC6011995892B11F02196EECFA1
:100340007E01C701DF91CF911F910F91FF90EF9038
:10035000DF90CF900895FC01538D448D252F30E020
:10036000842F90E0821B930B541710F0CF960895C2
:1003700001970895FC01918D828D981761F0828D0F
:10038000DF01A80FB11D5D968C91928D9F5F9F73C9
:10039000928F90E008958FEF9FEF0895FC01918D6B
:1003A000828D981731F0828DE80FF11D858D90E0D8
:1003B00008958FEF9FEF0895FC01918D228D892F75
:1003C00090E0805C9F4F821B91098F73992708955D
:1003D00087E793E00E94DC0121E0892B09F420E00B
:1003E000822F0895FC01848DDF01A80FB11DA35A4F
:1003F000BF4F2C91848D90E001968F739927848F45
:10040000A689B7892C93A089B1898C918370806467
:100410008C93938D848D981306C00288F389E02D08
:1004200080818F7D80830895EF92FF920F931F93B9
:10043000CF93DF93EC0181E0888F9B8D8C8D981397
:1004400005C0E889F989808185FD26C0F62E0B8DCF
:1004500010E00F5F1F4F0F731127E02E8C8DE812F5
:100460000CC00FB607FCFACFE889F989808185FFB7
:10047000F5CFCE010E94F201F1CF8B8DFE01E80F86
:10048000F11DE35AFF4FF0829FB7F8940B8FEA8972
:10049000FB89808180620AC09FB7F894EE89FF894A
:1004A0006083E889F98980818370806480839FBF3D
:1004B00081E090E0DF91CF911F910F91FF90EF903D
:1004C0000895CF93DF93EC01888D8823C9F0EA89E2
:1004D000FB89808185FD05C0A889B9898C9186FD3D
:1004E0000FC00FB607FCF5CF808185FFF2CFA8893A
:1004F000B9898C9185FFEDCFCE010E94F201E7CF43
:10050000DF91CF91089580E090E0892B21F00E9447
:10051000E801811125C080E090E0892B41F080E066
:1005200090E0892B21F00E94000081111CC080E026
:1005300090E0892B41F080E090E0892B21F00E942F
:100540000000811113C080E090E0892BA1F080E0D1
:1005500090E0892B81F00E94000081110AC008956B
:100560000E940000D8CF0E940000E1CF0E9400004E
:10057000EACF0C940000089585ED8093BC00809133
:10058000BC0084FDFCCF1092650308954091F602F3
:10059000262F30E0240F311D21323105DCF420916B
:1005A00065032430C9F4FC0180E090E0861758F41C
:1005B0003091F6022191DC01AA52BD4FA30FB11D6B
:1005C0002C930196F3CF8091F602680F6093F602A8
:1005D00080E0089581E0089582E008950895E09113
:1005E000690380916803E81730F4F0E0EA54FD4FA6
:1005F000808190E008958FEF9FEF089590916903B7
:1006000080916803981750F4E92FF0E0EA54FD4F09
:10061000208130E09F5F9093690302C02FEF3FEF8E
:10062000C90108958091680390E020916903821BBD
:1006300091090895CF92DF92EF92FF920F931F934B
:10064000CF93DF937C01CB018A0120913D032223CC
:1006500089F0EB016B01C40ED51ECC15DD0569F0E8
:100660006991D701ED91FC910190F081E02DC701D6
:100670001995F3CF642F0E94C602C801DF91CF9174
:100680001F910F91FF90EF90DF90CF900895CF933F
:10069000DF931F92CDB7DEB7698320913D032223FC
:1006A000D1F020916603203240F021E030E0FC01DF
:1006B0003383228380E090E015C080916703E82FA8
:1006C000F0E0E25CFC4F998190838F5F8093670339
:1006D0008093660305C061E0CE0101960E94C602C8
:1006E00081E090E00F90DF91CF910895089580E030
:1006F00090E008950E944D0F1F920F920FB60F9237
:1007000011240BB60F922F933F934F935F936F93E8
:100710007F938F939F93AF93BF93EF93FF9387E75D
:1007200093E00E94F201FF91EF91BF91AF919F91F1
:100730008F917F916F915F914F913F912F910F908A
:100740000BBE0F900FBE0F901F9018951F920F9227
:100750000FB60F9211240BB60F922F938F939F9386
:10076000EF93FF93E0918703F09188038081E091FC
:100770008D03F0918E0382FD12C0908180919003D1
:100780008F5F8F7320919103821751F0E091900356
:10079000F0E0E958FC4F958F8093900301C0808171
:1007A000FF91EF919F918F912F910F900BBE0F9022
:1007B0000FBE0F901F9018958F929F92AF92BF928D
:1007C000CF92DF92EF92FF920F931F93CF93DF931D
:1007D0008C014A015B0120E030E040E752E4C501B2
:1007E000B4010E942C0D6B017C01F80160817181C4
:1007F000828193819B01AC010E942F0E9B01AC0171
:10080000C701B6010E949B0EF80124813581468103
:1008100057810E949B0E20E030E040E855E40E94A2
:100820002C0D6B017C0120E030E0A9010E94430FF8
:1008300018161CF4C701B60103C0C701B6019058D1
:100840000E940D0FEB016F3F7F4034F41C161D0614
:100850002CF0C0E0D0E002C0CFEFDFE084E292E015
:100860000E947306CE010E944106FF24F39420E00B
:1008700030E0A901C501B4010E94430F18160CF025
:10088000F12C6F2DF80186850E9417078BE891E007
:100890000197F1F7F801128981E080933D031093ED
:1008A0005E0310926703109266036D2F84E194E05B
:1008B0000E9447036C2F84E194E00E9447039091CB
:1008C0006603913208F045C0809165038111FCCF29
:1008D00082E08093650381E0809364038FEF8093CF
:1008E0003C0310923B0390933A03AEE3B3E0EAE19A
:1008F000F3E080E0981721F02D9121938F5FFACFDC
:100900001092190380911903110F182B10931903DA
:1009100080916303813061F4109263038091190325
:100920008093BB008091BC0083FDF8CF85EC01C0B3
:1009300085EE8093BC00809165038230E1F3809165
:100940003C038F3F31F080913C03803211F0809165
:100950003C03109267031092660310923D03DF91EF
:10096000CF911F910F91FF90EF90DF90CF90BF90AC
:10097000AF909F908F9008951F920F920FB60F9295
:1009800011240BB60F922F933F934F935F936F9366
:100990007F938F939F93AF93BF93EF93FF93809138
:1009A000B900887F803609F49CC068F5883209F464
:1009B0005BC090F4803109F454C038F4882309F402
:1009C000F6C0883009F44DC0F6C0883109F44CC037
:1009D000803209F45DC0EFC0803409F468C048F487
:1009E000803309F455C0883309F0E5C080933C0397
:1009F000D8C0803509F44FC0883509F45DC088340B
:100A000009F0D9C0D6C0883909F4C7C0A8F488371E
:100A100009F467C038F4883609F463C0803709F4F4
:100A200060C0C9C0883809F4B8C0803909F45FC013
:100A3000803809F0C0C05BC0803B09F486C038F440
:100A4000803A09F466C0883A09F47FC0B4C0803C9B
:100A500009F4A7C0883C09F4A4C0883B09F48AC003
:100A6000AAC08091190310C090913B0380913A0372
:100A7000981770F5E0913B0381E08E0F80933B0364
:100A8000F0E0E65EFC4F80818093BB0085EC86C081
:100A900080933C038EC0E0913B0381E08E0F8093F6
:100AA0003B038091BB00F0E0E65EFC4F80839091B9
:100AB0003B0380913A036EC0E0913B0381E08E0FCF
:100AC00080933B038091BB00F0E0E65EFC4F8083A7
:100AD0008091640381116DC081E08093630384EA97
:100AE00061C083E08093650310921803CFCF80919B
:100AF0001803803208F051C0E091180381E08E0F96
:100B0000809318038091BB00F0E0E850FD4F808394
:100B1000BDCF85EC8093BC001092650380911803D3
:100B2000803230F4E0911803F0E0E850FD4F10827D
:100B30006091180370E0E0915F03F091600388EF2B
:100B400092E019951092180336C084E080936503F3
:100B50001092F7021092F602E0916103F0916203A5
:100B600019958091F602811105C081E08093F6020B
:100B70001092D602E091F70281E08E0F8093F70287
:100B8000F0E0EA52FD4F80818093BB009091F70224
:100B90008091F602981708F479CF85E88093BC001D
:100BA0000AC085EC8093BC001092650304C01092CB
:100BB0003C030E94BC02FF91EF91BF91AF919F91C6
:100BC0008F917F916F915F914F913F912F910F90F6
:100BD0000BBE0F900FBE0F901F901895009769F0F5
:100BE000FC0101900020E9F73197AF01481B590B38
:100BF000BC0187E793E00C94810180E090E00895C8
:100C00008F929F92AF92BF920F931F93CF93DF93D8
:100C1000CDB7DEB7A1970FB6F894DEBF0FBECDBF3C
:100C200019A2423008F44AE08E010F5D1F4F842E56
:100C3000912CA12CB12CA50194010E94040EE62F49
:100C4000B901CA0101501109EA3014F4E05D01C094
:100C5000E95CD801EC93232B242B252B61F7C801E9
:100C60000E94EE05A1960FB6F894DEBF0FBECDBF71
:100C7000DF91CF911F910F91BF90AF909F908F9078
:100C80000895CF92DF92EF92FF92CF93DF936C01A2
:100C9000990FEE08FF08F7FE13C06DE287E793E0B7
:100CA0000E941402EC0166277727CB016C197D099D
:100CB0008E099F094AE00E940006C80FD91F06C08E
:100CC0004AE0C701B6010E940006EC018FE692E0FF
:100CD0000E94EE058C0F9D1FDF91CF91FF90EF904A
:100CE000DF90CF900895CF93DF930E94EE05EC0143
:100CF0008FE692E00E94EE058C0F9D1FDF91CF9151
:100D00000895CF92DF92EF92FF92BC01990F880B6A
:100D1000990B0E94CD0C6B017C01AB01BC0180E200
:100D200094E00E94DC03B701A60183E394E00E94F3
:100D3000DC03B701A60186E494E0FF90EF90DF901A
:100D4000CF900C94DC03CF92DF92EF92FF92BC0124
:100D5000990F880B990B0E94CD0C6B017C01AB01A4
:100D6000BC0189E594E00E94DC03B701A6018CE692
:100D700094E00E94DC03B701A6018FE794E0FF90A6
:100D8000EF90DF90CF900C94DC03CF93DF93C0E221
:100D9000D4E040E050E0BA01CE010E94DC0363964B
:100DA00084E0C239D807A9F7DF91CF9108952FB712
:100DB000F8948091970490919804A0919904B0912F
:100DC0009A042FBF80937F0390938003A0938103A5
:100DD000B093820387E793E00E94CE0197FF26C07D
:100DE0002FB7F8948091970490919804A09199045A
:100DF000B0919A042FBF40917F035091800360917E
:100E0000810370918203841B950BA60BB70B409155
:100E10007B0350917C0360917D0370917E03841766
:100E20009507A607B707B0F28FEF9FEF0895362F0B
:100E300090E0FC01E05BFD4F4491FC01E65FFD4F5B
:100E40002491FC01EC53FE4F9491992309F46CC05A
:100E5000442309F455C050E0FA013197E231F1051D
:100E600008F04EC08827EE58FF4F8F4F0C94260E87
:100E7000809180008F7707C0809180008F7D03C0B4
:100E800080918000877F809380003AC084B58F77FF
:100E900002C084B58F7D84BD33C08091B0008F7750
:100EA00003C08091B0008F7D8093B00029C08091F5
:100EB00090008F7707C0809190008F7D03C0809154
:100EC0009000877F809390001BC08091A0008F7757
:100ED00007C08091A0008F7D03C08091A000877F14
:100EE0008093A0000DC0809120018F7707C0809172
:100EF00020018F7D03C080912001877F8093200196
:100F0000E92FF0E0EE0FFF1FE655FE4FA591B491DB
:100F10009FB7F894311104C08C912095282302C00A
:100F2000EC912E2B2C939FBF0895CF93DF9390E0ED
:100F3000FC01E65FFD4F2491FC01EC53FE4F8491D0
:100F4000882361F190E0880F991FFC01E057FE4F64
:100F5000C591D491FC01E655FE4FA591B491611164
:100F600009C09FB7F8948881209582238883EC91EB
:100F70002E230BC0623061F49FB7F8948881322F22
:100F8000309583238883EC912E2B2C939FBF06C032
:100F90008FB7F894E8812E2B28838FBFDF91CF91F4
:100FA00008951F920F920FB60F9211242F933F9323
:100FB0008F939F93AF93BF938091970490919804E0
:100FC000A0919904B0919A043091960423E0230FE4
:100FD0002D3720F40196A11DB11D05C026E8230F71
:100FE0000296A11DB11D20939604809397049093BF
:100FF0009804A0939904B0939A04809192049091DC
:101000009304A0919404B09195040196A11DB11D83
:101010008093920490939304A0939404B0939504C6
:10102000BF91AF919F918F913F912F910F900FBEE4
:101030000F901F901895789484B5826084BD84B514
:10104000816084BD85B5826085BD85B5816085BDC3
:1010500080916E00816080936E001092810080917B
:101060008100826080938100809181008160809303
:101070008100809180008160809380008091B10028
:1010800084608093B1008091B00081608093B00053
:1010900080919100826080939100809191008160A5
:1010A0008093910080919000816080939000809166
:1010B000A10082608093A1008091A1008160809353
:1010C000A1008091A00081608093A0008091210107
:1010D00082608093210180912101816080932101B0
:1010E0008091200181608093200180917A0084604A
:1010F00080937A0080917A00826080937A00809158
:101100007A00816080937A0080917A008068809371
:101110007A001092C1001092690310926803109235
:101120006703109266031092650381E08093640365
:101130001092630361E084E10E94170761E085E19A
:101140000E9417078091B9008E7F8093B90080912B
:10115000B9008D7F8093B90088E48093B80085E45E
:101160008093BC008FE791E09093620380936103CA
:1011700080E891E09093600380935F03E0918703A0
:10118000F091880382E08083E0918303F0918403EF
:101190001082E0918503F091860380E180831092B4
:1011A0008F03E0918B03F0918C0386E08083E091C4
:1011B0008903F0918A03808180618083E0918903B3
:1011C000F0918A03808188608083E0918903F091A7
:1011D0008A03808180688083E0918903F0918A038B
:1011E00080818F7D808382E090E0A0E0B0E08093FA
:1011F0007B0390937C03A0937D03B0937E038CE2EA
:1012000092E00E947306C0E2D4E0E12CF12C61E090
:101210008C850E94950761E08E850E94950761E0AC
:1012200088890E94950760E088850E94950760E0A4
:101230008A850E94950740E050E0BA01CE010E94E5
:10124000DC0361E08C850E94170780E492E00E9435
:10125000EE05C7010E9441062FEFE21AF20A6396DB
:1012600086E0E816F10499F6C2E9D4E087E793E056
:101270000E94DC01892B09F42AC187E793E00E94D0
:10128000BA018436910509F01CC187E793E00E94FA
:10129000DC01892B09F41BC187E793E00E94BA01A6
:1012A00081369105A9F08C36910509F4E4C006C198
:1012B0008D32910509F4B2C1C0970A9708F4AEC106
:1012C000EE32F10509F4AAC187E793E00E94BA0162
:1012D0000E94D706FC0197FFEBCFC12CD12C7601E1
:1012E000C0927003D0927103E0927203F092730384
:1012F00020E030E0A901C701B6010E94430F181693
:1013000024F0F7FAF094F7F8F094C0926C03D092BE
:101310006D03E0926E03F0926F0385E592E00E9408
:101320007306C0906C03D0906D03E0906E03F09054
:101330006F03A7019601C701B6010E94480F8823D9
:1013400019F083E692E01AC046015701E894B7F815
:101350002FEF3FEF4FE75FE7C501B4010E94480F51
:1013600081110FC02FEF3FEF4FE75FE7C501B401D9
:101370000E94C60C18162CF487E692E00E94EE0537
:1013800076C02FEF3FEF4FE75FE4C701B6010E9441
:10139000430F18161CF48BE692E0F0CF2FEF3FEFCF
:1013A0004FE75FECC701B6010E94C60C87FDF3CF83
:1013B00020E030E0A901C701B6010E94C60C87FFFA
:1013C00009C06DE287E793E00E941402F7FAF094F7
:1013D000F7F8F0942AE037ED43EA5BE3C701B60182
:1013E0000E942F0E4B015C010E94140F6B017C01C7
:1013F0000E94CB0C9B01AC01C501B4010E942E0ED2
:101400004B015C014AE0C701B6010E9400066EE292
:1014100087E793E00E94140220E030E040E251E4CC
:10142000C501B4010E942C0D4B015C010E94140FF8
:101430006B01E12CF12C4AE0C701B6010E940006C5
:10144000C701B6010E94CB0C9B01AC01C501B401E0
:101450000E942E0E20E030E040E251E40E942C0D6C
:101460000E94140F80E090E04AE00E9400068FE6A0
:1014700092E00E94EE050E94D706FC0197FD0DC088
:101480008D32910509F435C1C0970A9708F431C12E
:1014900087E793E00E94BA01EECFC12CD12C7601F0
:1014A000D0926B03C0926A0382E792E00E947306B7
:1014B00080916A0390916B030E9441068DE792E050
:1014C00004C00E94C5068CE992E00E9473068091D8
:1014D0007603882349F080917403909175030196F7
:1014E00090937503809374038091740390917503B6
:1014F000843F914041F410927503109274030E944E
:10150000C506109276038090700390907103A090AE
:101510007203B090730320E030E0A901C501B4016B
:101520000E94C60CC0906A03D0906B0387FF2BC04B
:1015300080906C0390906D03A0906E03B0906F0349
:10154000662777276C197D09072E000C880B990BED
:101550000E94CD0CA50194010E942C0D0E940D0F3C
:10156000CB010E94A306B601DD0C880B990B0E94EB
:10157000CD0CA50194010E942C0D0E940D0FCB01F2
:101580000E94810648C020E030E0A901C501B401F5
:101590000E94430F18165CF580906C0390906D03C9
:1015A000A0906E03B0906F03662777276C197D09B2
:1015B000072E000C880B990B0E94CD0CA5019401FD
:1015C0000E942C0D0E940D0FCB010E948106B601D6
:1015D000DD0C880B990B0E94CD0CA50194010E9493
:1015E0002C0D0E940D0FCB010E94A30614C000E237
:1015F00014E00D2C000CEE08FF08C701B6010E9494
:10160000CD0CAB01BC01C8010E94DC030D5E1F4F75
:10161000C017D10791F70E94830228CE812C912C0C
:1016200080E8A82E8FE3B82EC12CD12C760110E0D3
:1016300000E0E130F10569F1ED32F10539F1EE320A
:10164000F10531F1CF01C0970A9718F5AAE0B0E093
:10165000A70196010E94EA0D6F01FF0FEE08FF0837
:10166000C60ED71EE81EF91E20E3C21AD108E108F3
:10167000F108112371F02DEC3CEC4CEC5DE3C5015D
:10168000B4010E942C0D4B015C0103C001E001C0BC
:1016900011E087E793E00E94BA010E94D706FC019F
:1016A000C0970A9730F2EE32F10519F411115DC0BE
:1016B000C0CFE130F10509F4BCCF002341F0F09434
:1016C000E094D094C094C11CD11CE11CF11C1123E6
:1016D00049F0C701B6010E94CD0CA50194010E94FA
:1016E0002C0D04C0C701B6010E94CD0C6B017C011A
:1016F000F7CDC12CD12C760110E0E130F105E1F0FD
:10170000ED32F105C1F0CF01C0970A97A8F4AAE025
:10171000B0E0A70196010E94EA0D6F01FF0FEE08ED
:10172000FF08C60ED71EE81EF91E80E3C81AD108AE
:10173000E108F10801C011E087E793E00E94BA01D7
:101740000E94D706FC01C0970A97B8F2E130F10574
:10175000A1F2112309F4A4CEF094E094D094C094A3
:10176000C11CD11CE11CF11C9BCE0111A8CFB1CF33
:10177000E7E7F3E01382128288EE93E0A0E0B0E0A6
:1017800084839583A683B78324E032E0318320836A
:1017900025EC30E03587248724EC30E03787268736
:1017A00020EC30E0318B208B21EC30E0338B228B2E
:1017B00022EC30E0358B248B26EC30E0378B268B07
:1017C000118E128E138E148EE4E1F4E013821282D5
:1017D00084839583A683B78386E192E09183808397
:1017E000E0E2F4E04BED5FE069E470E440835183B4
:1017F0006283738380E090E4A2E1B5E484839583FF
:10180000A683B78328E130E03587248729E130E0DB
:101810003787268728E030E0318B208B27E130E0C6
:101820003387228729E0228B438B548B658B768B01
:10183000878B908FA18FB28F2AE130E030A3278F62
:101840002BE130E032A321A329E030E034A323A32D
:101850002DE130E0368F258F2DE025A346A357A339
:1018600060A771A782A793A7A4A7B5A721E230E03C
:1018700033AB22AB20E230E035AB24AB27E030E0E5
:1018800037AB26AB2EE130E031AB20AB28E020AF08
:1018900041AF52AF63AF74AF80935D0490935E0429
:1018A000A0935F04B093600423E230E030936604B9
:1018B0002093650422E230E03093680420936704AB
:1018C00024E030E030936A042093690424E230E09D
:1018D00030936404209363042CE020936B044093C2
:1018E0006C0450936D0460936E0470936F04809346
:1018F000700490937104A0937204B093730427E270
:1019000030E0309379042093780426E230E030937D
:101910007B0420937A0425E030E030937D0420930B
:101920007C0428E230E030937704209376042EE0A4
:1019300020937E0440937F0450938004609381043D
:10194000709382048093830490938404A09385040D
:10195000B09386048DE290E090938C0480938B0486
:101960008CE290E090938E0480938D0486E090E06A
:101970009093900480938F048AE290E090938A047D
:10198000809389048CE48093910408950E94080D4B
:1019900008F481E00895E89409C097FB3EF490951F
:1019A0008095709561957F4F8F4F9F4F9923A9F038
:1019B000F92F96E9BB279395F695879577956795C7
:1019C000B795F111F8CFFAF4BB0F11F460FF1BC00B
:1019D0006F5F7F4F8F4F9F4F16C0882311F096E99E
:1019E00011C0772321F09EE8872F762F05C066234C
:1019F00071F096E8862F70E060E02AF09A95660F05
:101A0000771F881FDAF7880F9695879597F90895BD
:101A1000990F0008550FAA0BE0E8FEEF16161706FF
:101A2000E807F907C0F012161306E407F50798F067
:101A3000621B730B840B950B39F40A2661F0232B80
:101A4000242B252B21F408950A2609F4A140A695FC
:101A50008FEF811D811D08950E943F0D0C94B00DE4
:101A60000E94A20D38F00E94A90D20F0952311F0DC
:101A70000C94990D0C949F0D11240C94E40D0E946C
:101A8000C10D70F3959FC1F3950F50E0551F629FF4
:101A9000F001729FBB27F00DB11D639FAA27F00DC7
:101AA000B11DAA1F649F6627B00DA11D661F829FEE
:101AB0002227B00DA11D621F739FB00DA11D621FD3
:101AC000839FA00D611D221F749F3327A00D611DF0
:101AD000231F849F600D211D822F762F6A2F1124D2
:101AE0009F5750409AF0F1F088234AF0EE0FFF1F05
:101AF000BB1F661F771F881F91505040A9F79E3F5C
:101B0000510580F00C94990D0C94E40D5F3FE4F3C3
:101B1000983ED4F3869577956795B795F795E795B1
:101B20009F5FC1F7FE2B880F911D9695879597F9BA
:101B3000089597F99F6780E870E060E008959FEF4F
:101B400080EC089500240A94161617061806090654
:101B5000089500240A941216130614060506089523
:101B6000092E0394000C11F4882352F0BB0F40F4AB
:101B7000BF2B11F460FF04C06F5F7F4F8F4F9F4FEB
:101B8000089557FD9058440F551F59F05F3F71F06D
:101B90004795880F97FB991F61F09F3F79F08795D4
:101BA0000895121613061406551FF2CF4695F1DF5D
:101BB00008C0161617061806991FF1CF86957105ED
:101BC000610508940895E894BB2766277727CB0121
:101BD00097F908950E94F50DA59F900DB49F900D63
:101BE000A49F800D911D11240895A29FB001B39F61
:101BF000C001A39F700D811D1124911DB29F700D16
:101C0000811D1124911D0895A1E21A2EAA1BBB1B50
:101C1000FD010DC0AA1FBB1FEE1FFF1FA217B307B8
:101C2000E407F50720F0A21BB30BE40BF50B661FCE
:101C3000771F881F991F1A9469F760957095809592
:101C400090959B01AC01BD01CF010895EE0FFF1FE0
:101C5000881F8BBF0790F691E02D19945058BB2731
:101C6000AA270E94460E0C94B00D0E94A20D38F0D7
:101C70000E94A90D20F039F49F3F19F426F40C942A
:101C80009F0D0EF4E095E7FB0C94990DE92F0E944F
:101C9000C10D58F3BA17620773078407950720F040
:101CA00079F4A6F50C94E30D0EF4E0950B2EBA2F03
:101CB000A02D0B01B90190010C01CA01A001112452
:101CC000FF27591B99F0593F50F4503E68F11A16FE
:101CD000F040A22F232F342F4427585FF3CF46958F
:101CE00037952795A795F0405395C9F77EF41F16B1
:101CF000BA0B620B730B840BBAF09150A1F0FF0F7B
:101D0000BB1F661F771F881FC2F70EC0BA0F621F66
:101D1000731F841F48F4879577956795B795F79556
:101D20009E3F08F0B0CF9395880F08F09927EE0FEB
:101D30009795879508950E94AF0E0C94B00D0E9460
:101D4000A90D58F00E94A20D40F029F45F3F29F040
:101D50000C94990D51110C94E40D0C949F0D0E945C
:101D6000C10D68F39923B1F3552391F3951B550BDE
:101D7000BB27AA2762177307840738F09F5F5F4F5E
:101D8000220F331F441FAA1FA9F335D00E2E3AF09D
:101D9000E0E832D091505040E695001CCAF72BD0B5
:101DA000FE2F29D0660F771F881FBB1F2617370706
:101DB0004807AB07B0E809F0BB0B802DBF01FF2738
:101DC00093585F4F3AF09E3F510578F00C94990D6F
:101DD0000C94E40D5F3FE4F3983ED4F38695779539
:101DE0006795B795F7959F5FC9F7880F911D9695F1
:101DF000879597F90895E1E0660F771F881FBB1F4D
:101E0000621773078407BA0720F0621B730B840BF9
:101E1000BA0BEE1F88F7E09508950E94140F68949E
:101E2000B1110C94E40D08950E94C90D88F09F57DC
:101E300098F0B92F9927B751B0F0E1F0660F771FEE
:101E4000881F991F1AF0BA95C9F714C0B13091F0E4
:101E50000E94E30DB1E008950C94E30D672F782FF5
:101E60008827B85F39F0B93FCCF3869577956795A9
:101E7000B395D9F73EF490958095709561957F4F15
:101E80008F4F9F4F08950E94080D08F48FEF08951B
:101E90000E94080D880B990B089581E090E0F8945A
:081EA0000C94520FF894FFCFDF
:101EA8000000000014028101AB016102DC01BA01EB
:101EB800CE010000000047031A037703EE02120365
:101EC800FE02EF0253504545443A200053657269BB
:101ED800616C20696E697469616C697A65642E0049
:101EE800496E697469616C697A696E67206D6F748F
:101EF8006F723A20005475726E20666163746F7257
:101F08003A20006E616E00696E66006F7666000D9D
:101F18000A0056656C6F636974793A20004E6F74D5
:101F28002061207265636F676E697A6564206472E8
:101F380069766520636F6D6D616E64004E6F742005
:101F480061207265636F676E697A656420636F6D7F
:061F58006D616E640000E3
:00000001FF
